{
  "contractName": "GenNFT",
  "abi": [
    {
      "inputs": [
        {
          "internalType": "uint256",
          "name": "maxSupply_",
          "type": "uint256"
        },
        {
          "internalType": "uint256",
          "name": "price_",
          "type": "uint256"
        },
        {
          "internalType": "uint256",
          "name": "maxMintAmount_",
          "type": "uint256"
        },
        {
          "internalType": "uint256",
          "name": "whitelistSaleTime_",
          "type": "uint256"
        },
        {
          "internalType": "uint256",
          "name": "publicSaleTime_",
          "type": "uint256"
        },
        {
          "internalType": "string",
          "name": "hiddenBaseURI_",
          "type": "string"
        },
        {
          "internalType": "string",
          "name": "revealBaseURI_",
          "type": "string"
        },
        {
          "internalType": "string",
          "name": "revealExtension_",
          "type": "string"
        },
        {
          "internalType": "bool",
          "name": "revealed_",
          "type": "bool"
        },
        {
          "internalType": "bool",
          "name": "transfersPaused_",
          "type": "bool"
        }
      ],
      "stateMutability": "nonpayable",
      "type": "constructor"
    },
    {
      "anonymous": false,
      "inputs": [
        {
          "indexed": true,
          "internalType": "address",
          "name": "owner",
          "type": "address"
        },
        {
          "indexed": true,
          "internalType": "address",
          "name": "approved",
          "type": "address"
        },
        {
          "indexed": true,
          "internalType": "uint256",
          "name": "tokenId",
          "type": "uint256"
        }
      ],
      "name": "Approval",
      "type": "event"
    },
    {
      "anonymous": false,
      "inputs": [
        {
          "indexed": true,
          "internalType": "address",
          "name": "owner",
          "type": "address"
        },
        {
          "indexed": true,
          "internalType": "address",
          "name": "operator",
          "type": "address"
        },
        {
          "indexed": false,
          "internalType": "bool",
          "name": "approved",
          "type": "bool"
        }
      ],
      "name": "ApprovalForAll",
      "type": "event"
    },
    {
      "anonymous": false,
      "inputs": [
        {
          "indexed": true,
          "internalType": "address",
          "name": "previousOwner",
          "type": "address"
        },
        {
          "indexed": true,
          "internalType": "address",
          "name": "newOwner",
          "type": "address"
        }
      ],
      "name": "OwnershipTransferred",
      "type": "event"
    },
    {
      "anonymous": false,
      "inputs": [
        {
          "indexed": false,
          "internalType": "address",
          "name": "account",
          "type": "address"
        }
      ],
      "name": "Paused",
      "type": "event"
    },
    {
      "anonymous": false,
      "inputs": [
        {
          "indexed": true,
          "internalType": "address",
          "name": "from",
          "type": "address"
        },
        {
          "indexed": true,
          "internalType": "address",
          "name": "to",
          "type": "address"
        },
        {
          "indexed": true,
          "internalType": "uint256",
          "name": "tokenId",
          "type": "uint256"
        }
      ],
      "name": "Transfer",
      "type": "event"
    },
    {
      "anonymous": false,
      "inputs": [
        {
          "indexed": false,
          "internalType": "address",
          "name": "account",
          "type": "address"
        }
      ],
      "name": "Unpaused",
      "type": "event"
    },
    {
      "inputs": [
        {
          "internalType": "address",
          "name": "to",
          "type": "address"
        },
        {
          "internalType": "uint256",
          "name": "tokenId",
          "type": "uint256"
        }
      ],
      "name": "approve",
      "outputs": [],
      "stateMutability": "nonpayable",
      "type": "function"
    },
    {
      "inputs": [
        {
          "internalType": "address",
          "name": "owner",
          "type": "address"
        }
      ],
      "name": "balanceOf",
      "outputs": [
        {
          "internalType": "uint256",
          "name": "",
          "type": "uint256"
        }
      ],
      "stateMutability": "view",
      "type": "function",
      "constant": true
    },
    {
      "inputs": [
        {
          "internalType": "uint256",
          "name": "tokenId",
          "type": "uint256"
        }
      ],
      "name": "getApproved",
      "outputs": [
        {
          "internalType": "address",
          "name": "",
          "type": "address"
        }
      ],
      "stateMutability": "view",
      "type": "function",
      "constant": true
    },
    {
      "inputs": [
        {
          "internalType": "address",
          "name": "owner",
          "type": "address"
        },
        {
          "internalType": "address",
          "name": "operator",
          "type": "address"
        }
      ],
      "name": "isApprovedForAll",
      "outputs": [
        {
          "internalType": "bool",
          "name": "",
          "type": "bool"
        }
      ],
      "stateMutability": "view",
      "type": "function",
      "constant": true
    },
    {
      "inputs": [],
      "name": "name",
      "outputs": [
        {
          "internalType": "string",
          "name": "",
          "type": "string"
        }
      ],
      "stateMutability": "view",
      "type": "function",
      "constant": true
    },
    {
      "inputs": [],
      "name": "owner",
      "outputs": [
        {
          "internalType": "address",
          "name": "",
          "type": "address"
        }
      ],
      "stateMutability": "view",
      "type": "function",
      "constant": true
    },
    {
      "inputs": [
        {
          "internalType": "uint256",
          "name": "tokenId",
          "type": "uint256"
        }
      ],
      "name": "ownerOf",
      "outputs": [
        {
          "internalType": "address",
          "name": "",
          "type": "address"
        }
      ],
      "stateMutability": "view",
      "type": "function",
      "constant": true
    },
    {
      "inputs": [],
      "name": "paused",
      "outputs": [
        {
          "internalType": "bool",
          "name": "",
          "type": "bool"
        }
      ],
      "stateMutability": "view",
      "type": "function",
      "constant": true
    },
    {
      "inputs": [],
      "name": "renounceOwnership",
      "outputs": [],
      "stateMutability": "nonpayable",
      "type": "function"
    },
    {
      "inputs": [
        {
          "internalType": "address",
          "name": "from",
          "type": "address"
        },
        {
          "internalType": "address",
          "name": "to",
          "type": "address"
        },
        {
          "internalType": "uint256",
          "name": "tokenId",
          "type": "uint256"
        }
      ],
      "name": "safeTransferFrom",
      "outputs": [],
      "stateMutability": "nonpayable",
      "type": "function"
    },
    {
      "inputs": [
        {
          "internalType": "address",
          "name": "from",
          "type": "address"
        },
        {
          "internalType": "address",
          "name": "to",
          "type": "address"
        },
        {
          "internalType": "uint256",
          "name": "tokenId",
          "type": "uint256"
        },
        {
          "internalType": "bytes",
          "name": "_data",
          "type": "bytes"
        }
      ],
      "name": "safeTransferFrom",
      "outputs": [],
      "stateMutability": "nonpayable",
      "type": "function"
    },
    {
      "inputs": [
        {
          "internalType": "address",
          "name": "operator",
          "type": "address"
        },
        {
          "internalType": "bool",
          "name": "approved",
          "type": "bool"
        }
      ],
      "name": "setApprovalForAll",
      "outputs": [],
      "stateMutability": "nonpayable",
      "type": "function"
    },
    {
      "inputs": [],
      "name": "symbol",
      "outputs": [
        {
          "internalType": "string",
          "name": "",
          "type": "string"
        }
      ],
      "stateMutability": "view",
      "type": "function",
      "constant": true
    },
    {
      "inputs": [
        {
          "internalType": "uint256",
          "name": "index",
          "type": "uint256"
        }
      ],
      "name": "tokenByIndex",
      "outputs": [
        {
          "internalType": "uint256",
          "name": "",
          "type": "uint256"
        }
      ],
      "stateMutability": "view",
      "type": "function",
      "constant": true
    },
    {
      "inputs": [
        {
          "internalType": "address",
          "name": "owner",
          "type": "address"
        },
        {
          "internalType": "uint256",
          "name": "index",
          "type": "uint256"
        }
      ],
      "name": "tokenOfOwnerByIndex",
      "outputs": [
        {
          "internalType": "uint256",
          "name": "",
          "type": "uint256"
        }
      ],
      "stateMutability": "view",
      "type": "function",
      "constant": true
    },
    {
      "inputs": [],
      "name": "totalSupply",
      "outputs": [
        {
          "internalType": "uint256",
          "name": "",
          "type": "uint256"
        }
      ],
      "stateMutability": "view",
      "type": "function",
      "constant": true
    },
    {
      "inputs": [
        {
          "internalType": "address",
          "name": "from",
          "type": "address"
        },
        {
          "internalType": "address",
          "name": "to",
          "type": "address"
        },
        {
          "internalType": "uint256",
          "name": "tokenId",
          "type": "uint256"
        }
      ],
      "name": "transferFrom",
      "outputs": [],
      "stateMutability": "nonpayable",
      "type": "function"
    },
    {
      "inputs": [
        {
          "internalType": "address",
          "name": "newOwner",
          "type": "address"
        }
      ],
      "name": "transferOwnership",
      "outputs": [],
      "stateMutability": "nonpayable",
      "type": "function"
    },
    {
      "inputs": [],
      "name": "withdraw",
      "outputs": [],
      "stateMutability": "nonpayable",
      "type": "function"
    },
    {
      "inputs": [
        {
          "internalType": "address",
          "name": "to",
          "type": "address"
        }
      ],
      "name": "withdraw",
      "outputs": [],
      "stateMutability": "nonpayable",
      "type": "function"
    },
    {
      "inputs": [
        {
          "internalType": "address",
          "name": "token",
          "type": "address"
        },
        {
          "internalType": "address",
          "name": "to",
          "type": "address"
        }
      ],
      "name": "withdrawToken",
      "outputs": [],
      "stateMutability": "nonpayable",
      "type": "function"
    },
    {
      "inputs": [
        {
          "internalType": "address",
          "name": "token",
          "type": "address"
        }
      ],
      "name": "withdrawToken",
      "outputs": [],
      "stateMutability": "nonpayable",
      "type": "function"
    },
    {
      "inputs": [],
      "name": "maxSupply",
      "outputs": [
        {
          "internalType": "uint256",
          "name": "",
          "type": "uint256"
        }
      ],
      "stateMutability": "view",
      "type": "function",
      "constant": true
    },
    {
      "inputs": [],
      "name": "price",
      "outputs": [
        {
          "internalType": "uint256",
          "name": "",
          "type": "uint256"
        }
      ],
      "stateMutability": "view",
      "type": "function",
      "constant": true
    },
    {
      "inputs": [],
      "name": "maxMintAmount",
      "outputs": [
        {
          "internalType": "uint256",
          "name": "",
          "type": "uint256"
        }
      ],
      "stateMutability": "view",
      "type": "function",
      "constant": true
    },
    {
      "inputs": [],
      "name": "pause",
      "outputs": [],
      "stateMutability": "nonpayable",
      "type": "function"
    },
    {
      "inputs": [],
      "name": "unpause",
      "outputs": [],
      "stateMutability": "nonpayable",
      "type": "function"
    },
    {
      "inputs": [
        {
          "internalType": "uint256",
          "name": "amount",
          "type": "uint256"
        }
      ],
      "name": "mint",
      "outputs": [],
      "stateMutability": "payable",
      "type": "function",
      "payable": true
    },
    {
      "inputs": [
        {
          "internalType": "uint256",
          "name": "amount",
          "type": "uint256"
        },
        {
          "components": [
            {
              "internalType": "address",
              "name": "account",
              "type": "address"
            },
            {
              "internalType": "uint256",
              "name": "allocation",
              "type": "uint256"
            },
            {
              "internalType": "uint256",
              "name": "price",
              "type": "uint256"
            }
          ],
          "internalType": "struct GenNFT.Whitelist",
          "name": "whitelist",
          "type": "tuple"
        }
      ],
      "name": "mintWhitelist",
      "outputs": [],
      "stateMutability": "payable",
      "type": "function",
      "payable": true
    },
    {
      "inputs": [
        {
          "internalType": "address",
          "name": "to",
          "type": "address"
        },
        {
          "internalType": "uint256",
          "name": "amount",
          "type": "uint256"
        }
      ],
      "name": "mintOwner",
      "outputs": [],
      "stateMutability": "nonpayable",
      "type": "function"
    },
    {
      "inputs": [
        {
          "internalType": "uint256",
          "name": "tokenId",
          "type": "uint256"
        }
      ],
      "name": "tokenURI",
      "outputs": [
        {
          "internalType": "string",
          "name": "",
          "type": "string"
        }
      ],
      "stateMutability": "view",
      "type": "function",
      "constant": true
    },
    {
      "inputs": [],
      "name": "transfersPaused",
      "outputs": [
        {
          "internalType": "bool",
          "name": "",
          "type": "bool"
        }
      ],
      "stateMutability": "view",
      "type": "function",
      "constant": true
    },
    {
      "inputs": [
        {
          "internalType": "bool",
          "name": "transfersPaused_",
          "type": "bool"
        }
      ],
      "name": "setTransfersPaused",
      "outputs": [],
      "stateMutability": "nonpayable",
      "type": "function"
    },
    {
      "inputs": [
        {
          "internalType": "bytes4",
          "name": "interfaceId",
          "type": "bytes4"
        }
      ],
      "name": "supportsInterface",
      "outputs": [
        {
          "internalType": "bool",
          "name": "",
          "type": "bool"
        }
      ],
      "stateMutability": "view",
      "type": "function",
      "constant": true
    },
    {
      "inputs": [
        {
          "internalType": "uint256",
          "name": "maxSupply_",
          "type": "uint256"
        }
      ],
      "name": "setMaxSupply",
      "outputs": [],
      "stateMutability": "nonpayable",
      "type": "function"
    },
    {
      "inputs": [
        {
          "internalType": "uint256",
          "name": "price_",
          "type": "uint256"
        }
      ],
      "name": "setPrice",
      "outputs": [],
      "stateMutability": "nonpayable",
      "type": "function"
    },
    {
      "inputs": [
        {
          "internalType": "uint256",
          "name": "maxMintAmount_",
          "type": "uint256"
        }
      ],
      "name": "setMaxMintAmount",
      "outputs": [],
      "stateMutability": "nonpayable",
      "type": "function"
    },
    {
      "inputs": [
        {
          "internalType": "string",
          "name": "baseURI",
          "type": "string"
        }
      ],
      "name": "setHiddenURI",
      "outputs": [],
      "stateMutability": "nonpayable",
      "type": "function"
    },
    {
      "inputs": [
        {
          "internalType": "string",
          "name": "baseURI",
          "type": "string"
        },
        {
          "internalType": "string",
          "name": "extension",
          "type": "string"
        }
      ],
      "name": "reveal",
      "outputs": [],
      "stateMutability": "nonpayable",
      "type": "function"
    },
    {
      "inputs": [],
      "name": "hide",
      "outputs": [],
      "stateMutability": "nonpayable",
      "type": "function"
    },
    {
      "inputs": [],
      "name": "whitelistSaleTime",
      "outputs": [
        {
          "internalType": "uint256",
          "name": "",
          "type": "uint256"
        }
      ],
      "stateMutability": "view",
      "type": "function",
      "constant": true
    },
    {
      "inputs": [
        {
          "internalType": "uint256",
          "name": "whitelistSaleTime_",
          "type": "uint256"
        }
      ],
      "name": "setWhitelistSaleTime",
      "outputs": [],
      "stateMutability": "nonpayable",
      "type": "function"
    },
    {
      "inputs": [],
      "name": "publicSaleTime",
      "outputs": [
        {
          "internalType": "uint256",
          "name": "",
          "type": "uint256"
        }
      ],
      "stateMutability": "view",
      "type": "function",
      "constant": true
    },
    {
      "inputs": [
        {
          "internalType": "uint256",
          "name": "publicSaleTime_",
          "type": "uint256"
        }
      ],
      "name": "setPublicSaleTime",
      "outputs": [],
      "stateMutability": "nonpayable",
      "type": "function"
    }
  ],
  "bytecode": "0x60806040523480156200001157600080fd5b5060405162005ff438038062005ff4833981810160405281019062000037919062000584565b6040518060400160405280600681526020017f47656e4e465400000000000000000000000000000000000000000000000000008152506040518060400160405280600481526020017f674e4654000000000000000000000000000000000000000000000000000000008152508160009080519060200190620000bb929190620002bf565b508060019080519060200190620000d4929190620002bf565b5050506000600a60006101000a81548160ff0219169083151502179055506200011262000106620001db60201b60201c565b620001e360201b60201c565b896010819055508860118190555087601281905550866013819055508560148190555084600c90805190602001906200014d929190620002bf565b5083600d908051906020019062000166929190620002bf565b5082600e90805190602001906200017f929190620002bf565b5081600f60006101000a81548160ff02191690831515021790555080601560006101000a81548160ff021916908315150217905550620001cb600b620002a960201b620022b21760201c565b505050505050505050506200073b565b600033905090565b6000600a60019054906101000a900473ffffffffffffffffffffffffffffffffffffffff16905081600a60016101000a81548173ffffffffffffffffffffffffffffffffffffffff021916908373ffffffffffffffffffffffffffffffffffffffff1602179055508173ffffffffffffffffffffffffffffffffffffffff168173ffffffffffffffffffffffffffffffffffffffff167f8be0079c531659141344cd1fd0a4f28419497f9722a3daafe3b4186f6b6457e060405160405180910390a35050565b6001816000016000828254019250508190555050565b828054620002cd9062000706565b90600052602060002090601f016020900481019282620002f157600085556200033d565b82601f106200030c57805160ff19168380011785556200033d565b828001600101855582156200033d579182015b828111156200033c5782518255916020019190600101906200031f565b5b5090506200034c919062000350565b5090565b5b808211156200036b57600081600090555060010162000351565b5090565b6000604051905090565b600080fd5b600080fd5b6000819050919050565b620003988162000383565b8114620003a457600080fd5b50565b600081519050620003b8816200038d565b92915050565b600080fd5b600080fd5b6000601f19601f8301169050919050565b7f4e487b7100000000000000000000000000000000000000000000000000000000600052604160045260246000fd5b6200041382620003c8565b810181811067ffffffffffffffff82111715620004355762000434620003d9565b5b80604052505050565b60006200044a6200036f565b905062000458828262000408565b919050565b600067ffffffffffffffff8211156200047b576200047a620003d9565b5b6200048682620003c8565b9050602081019050919050565b60005b83811015620004b357808201518184015260208101905062000496565b83811115620004c3576000848401525b50505050565b6000620004e0620004da846200045d565b6200043e565b905082815260208101848484011115620004ff57620004fe620003c3565b5b6200050c84828562000493565b509392505050565b600082601f8301126200052c576200052b620003be565b5b81516200053e848260208601620004c9565b91505092915050565b60008115159050919050565b6200055e8162000547565b81146200056a57600080fd5b50565b6000815190506200057e8162000553565b92915050565b6000806000806000806000806000806101408b8d031215620005ab57620005aa62000379565b5b6000620005bb8d828e01620003a7565b9a50506020620005ce8d828e01620003a7565b9950506040620005e18d828e01620003a7565b9850506060620005f48d828e01620003a7565b9750506080620006078d828e01620003a7565b96505060a08b015167ffffffffffffffff8111156200062b576200062a6200037e565b5b620006398d828e0162000514565b95505060c08b015167ffffffffffffffff8111156200065d576200065c6200037e565b5b6200066b8d828e0162000514565b94505060e08b015167ffffffffffffffff8111156200068f576200068e6200037e565b5b6200069d8d828e0162000514565b935050610100620006b18d828e016200056d565b925050610120620006c58d828e016200056d565b9150509295989b9194979a5092959850565b7f4e487b7100000000000000000000000000000000000000000000000000000000600052602260045260246000fd5b600060028204905060018216806200071f57607f821691505b602082108103620007355762000734620006d7565b5b50919050565b6158a9806200074b6000396000f3fe6080604052600436106102675760003560e01c80635ba1b2c711610144578063a035b1fe116100b6578063b88d4fde1161007a578063b88d4fde1461089a578063bbaac02f146108c3578063c87b56dd146108ec578063d5abeb0114610929578063e985e9c514610954578063f2fde38b1461099157610267565b8063a035b1fe146107ea578063a0712d6814610815578063a22cb46514610831578063afdea6c21461085a578063b62a76251461088357610267565b8063715018a611610108578063715018a6146107145780638456cb591461072b57806389476069146107425780638da5cb5b1461076b57806391b7f5ed1461079657806395d89b41146107bf57610267565b80635ba1b2c71461061d5780635c975abb146106465780636352211e146106715780636f8b44b0146106ae57806370a08231146106d757610267565b80632ecea7b7116101dd578063408cbf94116101a1578063408cbf941461051157806342842e0e1461053a57806344e46dff146105635780634563f30a1461058c5780634f6ccce7146105b757806351cff8d9146105f457610267565b80632ecea7b7146104525780632f745c591461047d5780633aeac4e1146104ba5780633ccfd60b146104e35780633f4ba83a146104fa57610267565b806311b7e5e71161022f57806311b7e5e71461036357806313c51a5b1461038c57806318160ddd146103a85780632344be0a146103d3578063239c70ae146103fe57806323b872dd1461042957610267565b806301ffc9a71461026c57806306fdde03146102a9578063081812fc146102d4578063088a4ed014610311578063095ea7b31461033a575b600080fd5b34801561027857600080fd5b50610293600480360381019061028e9190613af3565b6109ba565b6040516102a09190613b3b565b60405180910390f35b3480156102b557600080fd5b506102be6109dc565b6040516102cb9190613bef565b60405180910390f35b3480156102e057600080fd5b506102fb60048036038101906102f69190613c47565b610a6e565b6040516103089190613cb5565b60405180910390f35b34801561031d57600080fd5b5061033860048036038101906103339190613c47565b610af3565b005b34801561034657600080fd5b50610361600480360381019061035c9190613cfc565b610b79565b005b34801561036f57600080fd5b5061038a60048036038101906103859190613c47565b610c90565b005b6103a660048036038101906103a19190613d60565b610d16565b005b3480156103b457600080fd5b506103bd611022565b6040516103ca9190613daf565b60405180910390f35b3480156103df57600080fd5b506103e861102f565b6040516103f59190613daf565b60405180910390f35b34801561040a57600080fd5b50610413611039565b6040516104209190613daf565b60405180910390f35b34801561043557600080fd5b50610450600480360381019061044b9190613dca565b611043565b005b34801561045e57600080fd5b506104676110a3565b6040516104749190613daf565b60405180910390f35b34801561048957600080fd5b506104a4600480360381019061049f9190613cfc565b6110ad565b6040516104b19190613daf565b60405180910390f35b3480156104c657600080fd5b506104e160048036038101906104dc9190613e1d565b611152565b005b3480156104ef57600080fd5b506104f861124b565b005b34801561050657600080fd5b5061050f6112d4565b005b34801561051d57600080fd5b5061053860048036038101906105339190613cfc565b61135a565b005b34801561054657600080fd5b50610561600480360381019061055c9190613dca565b611402565b005b34801561056f57600080fd5b5061058a60048036038101906105859190613e89565b611422565b005b34801561059857600080fd5b506105a16114bb565b6040516105ae9190613b3b565b60405180910390f35b3480156105c357600080fd5b506105de60048036038101906105d99190613c47565b6114d2565b6040516105eb9190613daf565b60405180910390f35b34801561060057600080fd5b5061061b60048036038101906106169190613eb6565b611543565b005b34801561062957600080fd5b50610644600480360381019061063f9190614018565b6115cd565b005b34801561065257600080fd5b5061065b611696565b6040516106689190613b3b565b60405180910390f35b34801561067d57600080fd5b5061069860048036038101906106939190613c47565b6116ad565b6040516106a59190613cb5565b60405180910390f35b3480156106ba57600080fd5b506106d560048036038101906106d09190613c47565b61175e565b005b3480156106e357600080fd5b506106fe60048036038101906106f99190613eb6565b6117e4565b60405161070b9190613daf565b60405180910390f35b34801561072057600080fd5b5061072961189b565b005b34801561073757600080fd5b50610740611923565b005b34801561074e57600080fd5b5061076960048036038101906107649190613eb6565b6119a9565b005b34801561077757600080fd5b50610780611aa1565b60405161078d9190613cb5565b60405180910390f35b3480156107a257600080fd5b506107bd60048036038101906107b89190613c47565b611acb565b005b3480156107cb57600080fd5b506107d4611b51565b6040516107e19190613bef565b60405180910390f35b3480156107f657600080fd5b506107ff611be3565b60405161080c9190613daf565b60405180910390f35b61082f600480360381019061082a9190613c47565b611bed565b005b34801561083d57600080fd5b5061085860048036038101906108539190614090565b611de7565b005b34801561086657600080fd5b50610881600480360381019061087c9190613c47565b611dfd565b005b34801561088f57600080fd5b50610898611e83565b005b3480156108a657600080fd5b506108c160048036038101906108bc9190614171565b611f68565b005b3480156108cf57600080fd5b506108ea60048036038101906108e591906141f4565b611fca565b005b3480156108f857600080fd5b50610913600480360381019061090e9190613c47565b612060565b6040516109209190613bef565b60405180910390f35b34801561093557600080fd5b5061093e61211d565b60405161094b9190613daf565b60405180910390f35b34801561096057600080fd5b5061097b60048036038101906109769190613e1d565b612127565b6040516109889190613b3b565b60405180910390f35b34801561099d57600080fd5b506109b860048036038101906109b39190613eb6565b6121bb565b005b60006109c5826122c8565b806109d557506109d4826123aa565b5b9050919050565b6060600080546109eb9061426c565b80601f0160208091040260200160405190810160405280929190818152602001828054610a179061426c565b8015610a645780601f10610a3957610100808354040283529160200191610a64565b820191906000526020600020905b815481529060010190602001808311610a4757829003601f168201915b5050505050905090565b6000610a7982612424565b610ab8576040517f08c379a0000000000000000000000000000000000000000000000000000000008152600401610aaf9061430f565b60405180910390fd5b6004600083815260200190815260200160002060009054906101000a900473ffffffffffffffffffffffffffffffffffffffff169050919050565b610afb612490565b73ffffffffffffffffffffffffffffffffffffffff16610b19611aa1565b73ffffffffffffffffffffffffffffffffffffffff1614610b6f576040517f08c379a0000000000000000000000000000000000000000000000000000000008152600401610b669061437b565b60405180910390fd5b8060128190555050565b6000610b84826116ad565b90508073ffffffffffffffffffffffffffffffffffffffff168373ffffffffffffffffffffffffffffffffffffffff1603610bf4576040517f08c379a0000000000000000000000000000000000000000000000000000000008152600401610beb9061440d565b60405180910390fd5b8073ffffffffffffffffffffffffffffffffffffffff16610c13612490565b73ffffffffffffffffffffffffffffffffffffffff161480610c425750610c4181610c3c612490565b612127565b5b610c81576040517f08c379a0000000000000000000000000000000000000000000000000000000008152600401610c789061449f565b60405180910390fd5b610c8b8383612498565b505050565b610c98612490565b73ffffffffffffffffffffffffffffffffffffffff16610cb6611aa1565b73ffffffffffffffffffffffffffffffffffffffff1614610d0c576040517f08c379a0000000000000000000000000000000000000000000000000000000008152600401610d039061437b565b60405180910390fd5b8060148190555050565b610d1e611696565b15610d5e576040517f08c379a0000000000000000000000000000000000000000000000000000000008152600401610d559061450b565b60405180910390fd5b806000016020810190610d719190613eb6565b73ffffffffffffffffffffffffffffffffffffffff163373ffffffffffffffffffffffffffffffffffffffff1614610dde576040517f08c379a0000000000000000000000000000000000000000000000000000000008152600401610dd590614577565b60405180910390fd5b6000821015610e22576040517f08c379a0000000000000000000000000000000000000000000000000000000008152600401610e19906145e3565b60405180910390fd5b806020013582601660003373ffffffffffffffffffffffffffffffffffffffff1673ffffffffffffffffffffffffffffffffffffffff16815260200190815260200160002054610e729190614632565b1115610eb3576040517f08c379a0000000000000000000000000000000000000000000000000000000008152600401610eaa906146d4565b60405180910390fd5b34828260400135610ec491906146f4565b14610f04576040517f08c379a0000000000000000000000000000000000000000000000000000000008152600401610efb9061479a565b60405180910390fd5b60105482610f10611022565b610f1a9190614632565b1115610f5b576040517f08c379a0000000000000000000000000000000000000000000000000000000008152600401610f5290614806565b60405180910390fd5b601354421015610fa0576040517f08c379a0000000000000000000000000000000000000000000000000000000008152600401610f9790614898565b60405180910390fd5b81601660003373ffffffffffffffffffffffffffffffffffffffff1673ffffffffffffffffffffffffffffffffffffffff1681526020019081526020016000206000828254610fef9190614632565b9250508190555060005b8281101561101d5761100a33612551565b8080611015906148b8565b915050610ff9565b505050565b6000600880549050905090565b6000601454905090565b6000601254905090565b61105461104e612490565b826125bc565b611093576040517f08c379a000000000000000000000000000000000000000000000000000000000815260040161108a90614972565b60405180910390fd5b61109e83838361269a565b505050565b6000601354905090565b60006110b8836117e4565b82106110f9576040517f08c379a00000000000000000000000000000000000000000000000000000000081526004016110f090614a04565b60405180910390fd5b600660008473ffffffffffffffffffffffffffffffffffffffff1673ffffffffffffffffffffffffffffffffffffffff168152602001908152602001600020600083815260200190815260200160002054905092915050565b61115a612490565b73ffffffffffffffffffffffffffffffffffffffff16611178611aa1565b73ffffffffffffffffffffffffffffffffffffffff16146111ce576040517f08c379a00000000000000000000000000000000000000000000000000000000081526004016111c59061437b565b60405180910390fd5b600073ffffffffffffffffffffffffffffffffffffffff168273ffffffffffffffffffffffffffffffffffffffff160361123d576040517f08c379a000000000000000000000000000000000000000000000000000000000815260040161123490614a96565b60405180910390fd5b6112478282612900565b5050565b611253612490565b73ffffffffffffffffffffffffffffffffffffffff16611271611aa1565b73ffffffffffffffffffffffffffffffffffffffff16146112c7576040517f08c379a00000000000000000000000000000000000000000000000000000000081526004016112be9061437b565b60405180910390fd5b6112d2600033612900565b565b6112dc612490565b73ffffffffffffffffffffffffffffffffffffffff166112fa611aa1565b73ffffffffffffffffffffffffffffffffffffffff1614611350576040517f08c379a00000000000000000000000000000000000000000000000000000000081526004016113479061437b565b60405180910390fd5b611358612b84565b565b611362612490565b73ffffffffffffffffffffffffffffffffffffffff16611380611aa1565b73ffffffffffffffffffffffffffffffffffffffff16146113d6576040517f08c379a00000000000000000000000000000000000000000000000000000000081526004016113cd9061437b565b60405180910390fd5b60005b818110156113fd576113ea83612551565b80806113f5906148b8565b9150506113d9565b505050565b61141d83838360405180602001604052806000815250611f68565b505050565b61142a612490565b73ffffffffffffffffffffffffffffffffffffffff16611448611aa1565b73ffffffffffffffffffffffffffffffffffffffff161461149e576040517f08c379a00000000000000000000000000000000000000000000000000000000081526004016114959061437b565b60405180910390fd5b80601560006101000a81548160ff02191690831515021790555050565b6000601560009054906101000a900460ff16905090565b60006114dc611022565b821061151d576040517f08c379a000000000000000000000000000000000000000000000000000000000815260040161151490614b28565b60405180910390fd5b6008828154811061153157611530614b48565b5b90600052602060002001549050919050565b61154b612490565b73ffffffffffffffffffffffffffffffffffffffff16611569611aa1565b73ffffffffffffffffffffffffffffffffffffffff16146115bf576040517f08c379a00000000000000000000000000000000000000000000000000000000081526004016115b69061437b565b60405180910390fd5b6115ca600082612900565b50565b6115d5612490565b73ffffffffffffffffffffffffffffffffffffffff166115f3611aa1565b73ffffffffffffffffffffffffffffffffffffffff1614611649576040517f08c379a00000000000000000000000000000000000000000000000000000000081526004016116409061437b565b60405180910390fd5b81600d908051906020019061165f9291906139e4565b5080600e90805190602001906116769291906139e4565b506001600f60006101000a81548160ff0219169083151502179055505050565b6000600a60009054906101000a900460ff16905090565b6000806002600084815260200190815260200160002060009054906101000a900473ffffffffffffffffffffffffffffffffffffffff169050600073ffffffffffffffffffffffffffffffffffffffff168173ffffffffffffffffffffffffffffffffffffffff1603611755576040517f08c379a000000000000000000000000000000000000000000000000000000000815260040161174c90614be9565b60405180910390fd5b80915050919050565b611766612490565b73ffffffffffffffffffffffffffffffffffffffff16611784611aa1565b73ffffffffffffffffffffffffffffffffffffffff16146117da576040517f08c379a00000000000000000000000000000000000000000000000000000000081526004016117d19061437b565b60405180910390fd5b8060108190555050565b60008073ffffffffffffffffffffffffffffffffffffffff168273ffffffffffffffffffffffffffffffffffffffff1603611854576040517f08c379a000000000000000000000000000000000000000000000000000000000815260040161184b90614c7b565b60405180910390fd5b600360008373ffffffffffffffffffffffffffffffffffffffff1673ffffffffffffffffffffffffffffffffffffffff168152602001908152602001600020549050919050565b6118a3612490565b73ffffffffffffffffffffffffffffffffffffffff166118c1611aa1565b73ffffffffffffffffffffffffffffffffffffffff1614611917576040517f08c379a000000000000000000000000000000000000000000000000000000000815260040161190e9061437b565b60405180910390fd5b6119216000612c26565b565b61192b612490565b73ffffffffffffffffffffffffffffffffffffffff16611949611aa1565b73ffffffffffffffffffffffffffffffffffffffff161461199f576040517f08c379a00000000000000000000000000000000000000000000000000000000081526004016119969061437b565b60405180910390fd5b6119a7612cec565b565b6119b1612490565b73ffffffffffffffffffffffffffffffffffffffff166119cf611aa1565b73ffffffffffffffffffffffffffffffffffffffff1614611a25576040517f08c379a0000000000000000000000000000000000000000000000000000000008152600401611a1c9061437b565b60405180910390fd5b600073ffffffffffffffffffffffffffffffffffffffff168173ffffffffffffffffffffffffffffffffffffffff1603611a94576040517f08c379a0000000000000000000000000000000000000000000000000000000008152600401611a8b90614a96565b60405180910390fd5b611a9e8133612900565b50565b6000600a60019054906101000a900473ffffffffffffffffffffffffffffffffffffffff16905090565b611ad3612490565b73ffffffffffffffffffffffffffffffffffffffff16611af1611aa1565b73ffffffffffffffffffffffffffffffffffffffff1614611b47576040517f08c379a0000000000000000000000000000000000000000000000000000000008152600401611b3e9061437b565b60405180910390fd5b8060118190555050565b606060018054611b609061426c565b80601f0160208091040260200160405190810160405280929190818152602001828054611b8c9061426c565b8015611bd95780601f10611bae57610100808354040283529160200191611bd9565b820191906000526020600020905b815481529060010190602001808311611bbc57829003601f168201915b5050505050905090565b6000601154905090565b611bf5611696565b15611c35576040517f08c379a0000000000000000000000000000000000000000000000000000000008152600401611c2c9061450b565b60405180910390fd5b6000811015611c79576040517f08c379a0000000000000000000000000000000000000000000000000000000008152600401611c70906145e3565b60405180910390fd5b60125481611c86336117e4565b611c909190614632565b1115611cd1576040517f08c379a0000000000000000000000000000000000000000000000000000000008152600401611cc8906146d4565b60405180910390fd5b3481601154611ce091906146f4565b14611d20576040517f08c379a0000000000000000000000000000000000000000000000000000000008152600401611d1790614ce7565b60405180910390fd5b60105481611d2c611022565b611d369190614632565b1115611d77576040517f08c379a0000000000000000000000000000000000000000000000000000000008152600401611d6e90614806565b60405180910390fd5b601454421015611dbc576040517f08c379a0000000000000000000000000000000000000000000000000000000008152600401611db390614d79565b60405180910390fd5b60005b81811015611de357611dd033612551565b8080611ddb906148b8565b915050611dbf565b5050565b611df9611df2612490565b8383612d8f565b5050565b611e05612490565b73ffffffffffffffffffffffffffffffffffffffff16611e23611aa1565b73ffffffffffffffffffffffffffffffffffffffff1614611e79576040517f08c379a0000000000000000000000000000000000000000000000000000000008152600401611e709061437b565b60405180910390fd5b8060138190555050565b611e8b612490565b73ffffffffffffffffffffffffffffffffffffffff16611ea9611aa1565b73ffffffffffffffffffffffffffffffffffffffff1614611eff576040517f08c379a0000000000000000000000000000000000000000000000000000000008152600401611ef69061437b565b60405180910390fd5b60405180602001604052806000815250600d9080519060200190611f249291906139e4565b5060405180602001604052806000815250600e9080519060200190611f4a9291906139e4565b506000600f60006101000a81548160ff021916908315150217905550565b611f79611f73612490565b836125bc565b611fb8576040517f08c379a0000000000000000000000000000000000000000000000000000000008152600401611faf90614972565b60405180910390fd5b611fc484848484612efb565b50505050565b611fd2612490565b73ffffffffffffffffffffffffffffffffffffffff16611ff0611aa1565b73ffffffffffffffffffffffffffffffffffffffff1614612046576040517f08c379a000000000000000000000000000000000000000000000000000000000815260040161203d9061437b565b60405180910390fd5b80600c908051906020019061205c9291906139e4565b5050565b606061206b82612424565b6120aa576040517f08c379a00000000000000000000000000000000000000000000000000000000081526004016120a190614e0b565b60405180910390fd5b600f60009054906101000a900460ff16156120f457600d6120ca83612f57565b600e6040516020016120de93929190614efb565b6040516020818303038152906040529050612118565b600c6040516020016121069190614f2c565b60405160208183030381529060405290505b919050565b6000601054905090565b6000600560008473ffffffffffffffffffffffffffffffffffffffff1673ffffffffffffffffffffffffffffffffffffffff16815260200190815260200160002060008373ffffffffffffffffffffffffffffffffffffffff1673ffffffffffffffffffffffffffffffffffffffff16815260200190815260200160002060009054906101000a900460ff16905092915050565b6121c3612490565b73ffffffffffffffffffffffffffffffffffffffff166121e1611aa1565b73ffffffffffffffffffffffffffffffffffffffff1614612237576040517f08c379a000000000000000000000000000000000000000000000000000000000815260040161222e9061437b565b60405180910390fd5b600073ffffffffffffffffffffffffffffffffffffffff168173ffffffffffffffffffffffffffffffffffffffff16036122a6576040517f08c379a000000000000000000000000000000000000000000000000000000000815260040161229d90614fb5565b60405180910390fd5b6122af81612c26565b50565b6001816000016000828254019250508190555050565b60007f80ac58cd000000000000000000000000000000000000000000000000000000007bffffffffffffffffffffffffffffffffffffffffffffffffffffffff1916827bffffffffffffffffffffffffffffffffffffffffffffffffffffffff1916148061239357507f5b5e139f000000000000000000000000000000000000000000000000000000007bffffffffffffffffffffffffffffffffffffffffffffffffffffffff1916827bffffffffffffffffffffffffffffffffffffffffffffffffffffffff1916145b806123a357506123a2826130b7565b5b9050919050565b60007f780e9d63000000000000000000000000000000000000000000000000000000007bffffffffffffffffffffffffffffffffffffffffffffffffffffffff1916827bffffffffffffffffffffffffffffffffffffffffffffffffffffffff1916148061241d575061241c826122c8565b5b9050919050565b60008073ffffffffffffffffffffffffffffffffffffffff166002600084815260200190815260200160002060009054906101000a900473ffffffffffffffffffffffffffffffffffffffff1673ffffffffffffffffffffffffffffffffffffffff1614159050919050565b600033905090565b816004600083815260200190815260200160002060006101000a81548173ffffffffffffffffffffffffffffffffffffffff021916908373ffffffffffffffffffffffffffffffffffffffff160217905550808273ffffffffffffffffffffffffffffffffffffffff1661250b836116ad565b73ffffffffffffffffffffffffffffffffffffffff167f8c5be1e5ebec7d5bd14f71427d1e84f3dd0314c0f7b2291e5b200ac8c7c3b92560405160405180910390a45050565b600061255d600b613121565b90506010548111156125a4576040517f08c379a000000000000000000000000000000000000000000000000000000000815260040161259b90614806565b60405180910390fd5b6125ae600b6122b2565b6125b8828261312f565b5050565b60006125c782612424565b612606576040517f08c379a00000000000000000000000000000000000000000000000000000000081526004016125fd90615047565b60405180910390fd5b6000612611836116ad565b90508073ffffffffffffffffffffffffffffffffffffffff168473ffffffffffffffffffffffffffffffffffffffff16148061268057508373ffffffffffffffffffffffffffffffffffffffff1661266884610a6e565b73ffffffffffffffffffffffffffffffffffffffff16145b8061269157506126908185612127565b5b91505092915050565b8273ffffffffffffffffffffffffffffffffffffffff166126ba826116ad565b73ffffffffffffffffffffffffffffffffffffffff1614612710576040517f08c379a0000000000000000000000000000000000000000000000000000000008152600401612707906150d9565b60405180910390fd5b600073ffffffffffffffffffffffffffffffffffffffff168273ffffffffffffffffffffffffffffffffffffffff160361277f576040517f08c379a00000000000000000000000000000000000000000000000000000000081526004016127769061516b565b60405180910390fd5b61278a83838361314d565b612795600082612498565b6001600360008573ffffffffffffffffffffffffffffffffffffffff1673ffffffffffffffffffffffffffffffffffffffff16815260200190815260200160002060008282546127e5919061518b565b925050819055506001600360008473ffffffffffffffffffffffffffffffffffffffff1673ffffffffffffffffffffffffffffffffffffffff168152602001908152602001600020600082825461283c9190614632565b92505081905550816002600083815260200190815260200160002060006101000a81548173ffffffffffffffffffffffffffffffffffffffff021916908373ffffffffffffffffffffffffffffffffffffffff160217905550808273ffffffffffffffffffffffffffffffffffffffff168473ffffffffffffffffffffffffffffffffffffffff167fddf252ad1be2c89b69c2b068fc378daa952ba7f163c4a11628f55a4df523b3ef60405160405180910390a46128fb8383836131e4565b505050565b600073ffffffffffffffffffffffffffffffffffffffff168173ffffffffffffffffffffffffffffffffffffffff160361296f576040517f08c379a000000000000000000000000000000000000000000000000000000000815260040161296690615231565b60405180910390fd5b600073ffffffffffffffffffffffffffffffffffffffff168273ffffffffffffffffffffffffffffffffffffffff1614612aef57600082905060008173ffffffffffffffffffffffffffffffffffffffff166370a08231306040518263ffffffff1660e01b81526004016129e39190613cb5565b602060405180830381865afa158015612a00573d6000803e3d6000fd5b505050506040513d601f19601f82011682018060405250810190612a249190615266565b905060008111612a69576040517f08c379a0000000000000000000000000000000000000000000000000000000008152600401612a6090615305565b60405180910390fd5b8173ffffffffffffffffffffffffffffffffffffffff1663a9059cbb84836040518363ffffffff1660e01b8152600401612aa4929190615325565b6020604051808303816000875af1158015612ac3573d6000803e3d6000fd5b505050506040513d601f19601f82011682018060405250810190612ae79190615363565b505050612b80565b600047905060008111612b37576040517f08c379a0000000000000000000000000000000000000000000000000000000008152600401612b2e90615402565b60405180910390fd5b8173ffffffffffffffffffffffffffffffffffffffff166108fc829081150290604051600060405180830381858888f19350505050158015612b7d573d6000803e3d6000fd5b50505b5050565b612b8c611696565b612bcb576040517f08c379a0000000000000000000000000000000000000000000000000000000008152600401612bc29061546e565b60405180910390fd5b6000600a60006101000a81548160ff0219169083151502179055507f5db9ee0a495bf2e6ff9c91a7834c1ba4fdd244a5e8aa4e537bd38aeae4b073aa612c0f612490565b604051612c1c9190613cb5565b60405180910390a1565b6000600a60019054906101000a900473ffffffffffffffffffffffffffffffffffffffff16905081600a60016101000a81548173ffffffffffffffffffffffffffffffffffffffff021916908373ffffffffffffffffffffffffffffffffffffffff1602179055508173ffffffffffffffffffffffffffffffffffffffff168173ffffffffffffffffffffffffffffffffffffffff167f8be0079c531659141344cd1fd0a4f28419497f9722a3daafe3b4186f6b6457e060405160405180910390a35050565b612cf4611696565b15612d34576040517f08c379a0000000000000000000000000000000000000000000000000000000008152600401612d2b9061450b565b60405180910390fd5b6001600a60006101000a81548160ff0219169083151502179055507f62e78cea01bee320cd4e420270b5ea74000d11b0c9f74754ebdbfc544b05a258612d78612490565b604051612d859190613cb5565b60405180910390a1565b8173ffffffffffffffffffffffffffffffffffffffff168373ffffffffffffffffffffffffffffffffffffffff1603612dfd576040517f08c379a0000000000000000000000000000000000000000000000000000000008152600401612df4906154da565b60405180910390fd5b80600560008573ffffffffffffffffffffffffffffffffffffffff1673ffffffffffffffffffffffffffffffffffffffff16815260200190815260200160002060008473ffffffffffffffffffffffffffffffffffffffff1673ffffffffffffffffffffffffffffffffffffffff16815260200190815260200160002060006101000a81548160ff0219169083151502179055508173ffffffffffffffffffffffffffffffffffffffff168373ffffffffffffffffffffffffffffffffffffffff167f17307eab39ab6107e8899845ad3d59bd9653f200f220920489ca2b5937696c3183604051612eee9190613b3b565b60405180910390a3505050565b612f0684848461269a565b612f12848484846131e9565b612f51576040517f08c379a0000000000000000000000000000000000000000000000000000000008152600401612f489061556c565b60405180910390fd5b50505050565b606060008203612f9e576040518060400160405280600181526020017f300000000000000000000000000000000000000000000000000000000000000081525090506130b2565b600082905060005b60008214612fd0578080612fb9906148b8565b915050600a82612fc991906155bb565b9150612fa6565b60008167ffffffffffffffff811115612fec57612feb613eed565b5b6040519080825280601f01601f19166020018201604052801561301e5781602001600182028036833780820191505090505b5090505b600085146130ab57600182613037919061518b565b9150600a8561304691906155ec565b60306130529190614632565b60f81b81838151811061306857613067614b48565b5b60200101907effffffffffffffffffffffffffffffffffffffffffffffffffffffffffffff1916908160001a905350600a856130a491906155bb565b9450613022565b8093505050505b919050565b60007f01ffc9a7000000000000000000000000000000000000000000000000000000007bffffffffffffffffffffffffffffffffffffffffffffffffffffffff1916827bffffffffffffffffffffffffffffffffffffffffffffffffffffffff1916149050919050565b600081600001549050919050565b613149828260405180602001604052806000815250613370565b5050565b601560009054906101000a900460ff1615806131955750600073ffffffffffffffffffffffffffffffffffffffff168373ffffffffffffffffffffffffffffffffffffffff16145b6131d4576040517f08c379a00000000000000000000000000000000000000000000000000000000081526004016131cb90615669565b60405180910390fd5b6131df8383836133cb565b505050565b505050565b600061320a8473ffffffffffffffffffffffffffffffffffffffff166134dd565b15613363578373ffffffffffffffffffffffffffffffffffffffff1663150b7a02613233612490565b8786866040518563ffffffff1660e01b815260040161325594939291906156de565b6020604051808303816000875af192505050801561329157506040513d601f19601f8201168201806040525081019061328e919061573f565b60015b613313573d80600081146132c1576040519150601f19603f3d011682016040523d82523d6000602084013e6132c6565b606091505b50600081510361330b576040517f08c379a00000000000000000000000000000000000000000000000000000000081526004016133029061556c565b60405180910390fd5b805181602001fd5b63150b7a0260e01b7bffffffffffffffffffffffffffffffffffffffffffffffffffffffff1916817bffffffffffffffffffffffffffffffffffffffffffffffffffffffff191614915050613368565b600190505b949350505050565b61337a8383613500565b61338760008484846131e9565b6133c6576040517f08c379a00000000000000000000000000000000000000000000000000000000081526004016133bd9061556c565b60405180910390fd5b505050565b6133d68383836136d9565b600073ffffffffffffffffffffffffffffffffffffffff168373ffffffffffffffffffffffffffffffffffffffff160361341857613413816136de565b613457565b8173ffffffffffffffffffffffffffffffffffffffff168373ffffffffffffffffffffffffffffffffffffffff1614613456576134558382613727565b5b5b600073ffffffffffffffffffffffffffffffffffffffff168273ffffffffffffffffffffffffffffffffffffffff16036134995761349481613894565b6134d8565b8273ffffffffffffffffffffffffffffffffffffffff168273ffffffffffffffffffffffffffffffffffffffff16146134d7576134d68282613965565b5b5b505050565b6000808273ffffffffffffffffffffffffffffffffffffffff163b119050919050565b600073ffffffffffffffffffffffffffffffffffffffff168273ffffffffffffffffffffffffffffffffffffffff160361356f576040517f08c379a0000000000000000000000000000000000000000000000000000000008152600401613566906157b8565b60405180910390fd5b61357881612424565b156135b8576040517f08c379a00000000000000000000000000000000000000000000000000000000081526004016135af90615824565b60405180910390fd5b6135c46000838361314d565b6001600360008473ffffffffffffffffffffffffffffffffffffffff1673ffffffffffffffffffffffffffffffffffffffff16815260200190815260200160002060008282546136149190614632565b92505081905550816002600083815260200190815260200160002060006101000a81548173ffffffffffffffffffffffffffffffffffffffff021916908373ffffffffffffffffffffffffffffffffffffffff160217905550808273ffffffffffffffffffffffffffffffffffffffff16600073ffffffffffffffffffffffffffffffffffffffff167fddf252ad1be2c89b69c2b068fc378daa952ba7f163c4a11628f55a4df523b3ef60405160405180910390a46136d5600083836131e4565b5050565b505050565b6008805490506009600083815260200190815260200160002081905550600881908060018154018082558091505060019003906000526020600020016000909190919091505550565b60006001613734846117e4565b61373e919061518b565b9050600060076000848152602001908152602001600020549050818114613823576000600660008673ffffffffffffffffffffffffffffffffffffffff1673ffffffffffffffffffffffffffffffffffffffff168152602001908152602001600020600084815260200190815260200160002054905080600660008773ffffffffffffffffffffffffffffffffffffffff1673ffffffffffffffffffffffffffffffffffffffff168152602001908152602001600020600084815260200190815260200160002081905550816007600083815260200190815260200160002081905550505b6007600084815260200190815260200160002060009055600660008573ffffffffffffffffffffffffffffffffffffffff1673ffffffffffffffffffffffffffffffffffffffff16815260200190815260200160002060008381526020019081526020016000206000905550505050565b600060016008805490506138a8919061518b565b90506000600960008481526020019081526020016000205490506000600883815481106138d8576138d7614b48565b5b9060005260206000200154905080600883815481106138fa576138f9614b48565b5b90600052602060002001819055508160096000838152602001908152602001600020819055506009600085815260200190815260200160002060009055600880548061394957613948615844565b5b6001900381819060005260206000200160009055905550505050565b6000613970836117e4565b905081600660008573ffffffffffffffffffffffffffffffffffffffff1673ffffffffffffffffffffffffffffffffffffffff168152602001908152602001600020600083815260200190815260200160002081905550806007600084815260200190815260200160002081905550505050565b8280546139f09061426c565b90600052602060002090601f016020900481019282613a125760008555613a59565b82601f10613a2b57805160ff1916838001178555613a59565b82800160010185558215613a59579182015b82811115613a58578251825591602001919060010190613a3d565b5b509050613a669190613a6a565b5090565b5b80821115613a83576000816000905550600101613a6b565b5090565b6000604051905090565b600080fd5b600080fd5b60007fffffffff0000000000000000000000000000000000000000000000000000000082169050919050565b613ad081613a9b565b8114613adb57600080fd5b50565b600081359050613aed81613ac7565b92915050565b600060208284031215613b0957613b08613a91565b5b6000613b1784828501613ade565b91505092915050565b60008115159050919050565b613b3581613b20565b82525050565b6000602082019050613b506000830184613b2c565b92915050565b600081519050919050565b600082825260208201905092915050565b60005b83811015613b90578082015181840152602081019050613b75565b83811115613b9f576000848401525b50505050565b6000601f19601f8301169050919050565b6000613bc182613b56565b613bcb8185613b61565b9350613bdb818560208601613b72565b613be481613ba5565b840191505092915050565b60006020820190508181036000830152613c098184613bb6565b905092915050565b6000819050919050565b613c2481613c11565b8114613c2f57600080fd5b50565b600081359050613c4181613c1b565b92915050565b600060208284031215613c5d57613c5c613a91565b5b6000613c6b84828501613c32565b91505092915050565b600073ffffffffffffffffffffffffffffffffffffffff82169050919050565b6000613c9f82613c74565b9050919050565b613caf81613c94565b82525050565b6000602082019050613cca6000830184613ca6565b92915050565b613cd981613c94565b8114613ce457600080fd5b50565b600081359050613cf681613cd0565b92915050565b60008060408385031215613d1357613d12613a91565b5b6000613d2185828601613ce7565b9250506020613d3285828601613c32565b9150509250929050565b600080fd5b600060608284031215613d5757613d56613d3c565b5b81905092915050565b60008060808385031215613d7757613d76613a91565b5b6000613d8585828601613c32565b9250506020613d9685828601613d41565b9150509250929050565b613da981613c11565b82525050565b6000602082019050613dc46000830184613da0565b92915050565b600080600060608486031215613de357613de2613a91565b5b6000613df186828701613ce7565b9350506020613e0286828701613ce7565b9250506040613e1386828701613c32565b9150509250925092565b60008060408385031215613e3457613e33613a91565b5b6000613e4285828601613ce7565b9250506020613e5385828601613ce7565b9150509250929050565b613e6681613b20565b8114613e7157600080fd5b50565b600081359050613e8381613e5d565b92915050565b600060208284031215613e9f57613e9e613a91565b5b6000613ead84828501613e74565b91505092915050565b600060208284031215613ecc57613ecb613a91565b5b6000613eda84828501613ce7565b91505092915050565b600080fd5b600080fd5b7f4e487b7100000000000000000000000000000000000000000000000000000000600052604160045260246000fd5b613f2582613ba5565b810181811067ffffffffffffffff82111715613f4457613f43613eed565b5b80604052505050565b6000613f57613a87565b9050613f638282613f1c565b919050565b600067ffffffffffffffff821115613f8357613f82613eed565b5b613f8c82613ba5565b9050602081019050919050565b82818337600083830152505050565b6000613fbb613fb684613f68565b613f4d565b905082815260208101848484011115613fd757613fd6613ee8565b5b613fe2848285613f99565b509392505050565b600082601f830112613fff57613ffe613ee3565b5b813561400f848260208601613fa8565b91505092915050565b6000806040838503121561402f5761402e613a91565b5b600083013567ffffffffffffffff81111561404d5761404c613a96565b5b61405985828601613fea565b925050602083013567ffffffffffffffff81111561407a57614079613a96565b5b61408685828601613fea565b9150509250929050565b600080604083850312156140a7576140a6613a91565b5b60006140b585828601613ce7565b92505060206140c685828601613e74565b9150509250929050565b600067ffffffffffffffff8211156140eb576140ea613eed565b5b6140f482613ba5565b9050602081019050919050565b600061411461410f846140d0565b613f4d565b9050828152602081018484840111156141305761412f613ee8565b5b61413b848285613f99565b509392505050565b600082601f83011261415857614157613ee3565b5b8135614168848260208601614101565b91505092915050565b6000806000806080858703121561418b5761418a613a91565b5b600061419987828801613ce7565b94505060206141aa87828801613ce7565b93505060406141bb87828801613c32565b925050606085013567ffffffffffffffff8111156141dc576141db613a96565b5b6141e887828801614143565b91505092959194509250565b60006020828403121561420a57614209613a91565b5b600082013567ffffffffffffffff81111561422857614227613a96565b5b61423484828501613fea565b91505092915050565b7f4e487b7100000000000000000000000000000000000000000000000000000000600052602260045260246000fd5b6000600282049050600182168061428457607f821691505b6020821081036142975761429661423d565b5b50919050565b7f4552433732313a20617070726f76656420717565727920666f72206e6f6e657860008201527f697374656e7420746f6b656e0000000000000000000000000000000000000000602082015250565b60006142f9602c83613b61565b91506143048261429d565b604082019050919050565b60006020820190508181036000830152614328816142ec565b9050919050565b7f4f776e61626c653a2063616c6c6572206973206e6f7420746865206f776e6572600082015250565b6000614365602083613b61565b91506143708261432f565b602082019050919050565b6000602082019050818103600083015261439481614358565b9050919050565b7f4552433732313a20617070726f76616c20746f2063757272656e74206f776e6560008201527f7200000000000000000000000000000000000000000000000000000000000000602082015250565b60006143f7602183613b61565b91506144028261439b565b604082019050919050565b60006020820190508181036000830152614426816143ea565b9050919050565b7f4552433732313a20617070726f76652063616c6c6572206973206e6f74206f7760008201527f6e6572206e6f7220617070726f76656420666f7220616c6c0000000000000000602082015250565b6000614489603883613b61565b91506144948261442d565b604082019050919050565b600060208201905081810360008301526144b88161447c565b9050919050565b7f5061757361626c653a2070617573656400000000000000000000000000000000600082015250565b60006144f5601083613b61565b9150614500826144bf565b602082019050919050565b60006020820190508181036000830152614524816144e8565b9050919050565b7f47656e4e46543a2073656e646572206e6f742077686974656c69737465640000600082015250565b6000614561601e83613b61565b915061456c8261452b565b602082019050919050565b6000602082019050818103600083015261459081614554565b9050919050565b7f47656e4e46543a20746f6b656e20616d6f756e74206973207a65726f00000000600082015250565b60006145cd601c83613b61565b91506145d882614597565b602082019050919050565b600060208201905081810360008301526145fc816145c0565b9050919050565b7f4e487b7100000000000000000000000000000000000000000000000000000000600052601160045260246000fd5b600061463d82613c11565b915061464883613c11565b9250827fffffffffffffffffffffffffffffffffffffffffffffffffffffffffffffffff0382111561467d5761467c614603565b5b828201905092915050565b7f47656e4e46543a2065786365656473206d6178206d696e74206c696d69740000600082015250565b60006146be601e83613b61565b91506146c982614688565b602082019050919050565b600060208201905081810360008301526146ed816146b1565b9050919050565b60006146ff82613c11565b915061470a83613c11565b9250817fffffffffffffffffffffffffffffffffffffffffffffffffffffffffffffffff048311821515161561474357614742614603565b5b828202905092915050565b7f47656e4e46543a20696e76616c69642065746820616d6f756e74000000000000600082015250565b6000614784601a83613b61565b915061478f8261474e565b602082019050919050565b600060208201905081810360008301526147b381614777565b9050919050565b7f47656e4e46543a2065786365656473206d617820737570706c79000000000000600082015250565b60006147f0601a83613b61565b91506147fb826147ba565b602082019050919050565b6000602082019050818103600083015261481f816147e3565b9050919050565b7f47656e4e46543a2077686974656c6973742073616c65206861736e277420737460008201527f6172746564000000000000000000000000000000000000000000000000000000602082015250565b6000614882602583613b61565b915061488d82614826565b604082019050919050565b600060208201905081810360008301526148b181614875565b9050919050565b60006148c382613c11565b91507fffffffffffffffffffffffffffffffffffffffffffffffffffffffffffffffff82036148f5576148f4614603565b5b600182019050919050565b7f4552433732313a207472616e736665722063616c6c6572206973206e6f74206f60008201527f776e6572206e6f7220617070726f766564000000000000000000000000000000602082015250565b600061495c603183613b61565b915061496782614900565b604082019050919050565b6000602082019050818103600083015261498b8161494f565b9050919050565b7f455243373231456e756d657261626c653a206f776e657220696e646578206f7560008201527f74206f6620626f756e6473000000000000000000000000000000000000000000602082015250565b60006149ee602b83613b61565b91506149f982614992565b604082019050919050565b60006020820190508181036000830152614a1d816149e1565b9050919050565b7f576974686472617761626c653a207a65726f2061646472657373206973206e6f60008201527f7420616e20455243323020746f6b656e00000000000000000000000000000000602082015250565b6000614a80603083613b61565b9150614a8b82614a24565b604082019050919050565b60006020820190508181036000830152614aaf81614a73565b9050919050565b7f455243373231456e756d657261626c653a20676c6f62616c20696e646578206f60008201527f7574206f6620626f756e64730000000000000000000000000000000000000000602082015250565b6000614b12602c83613b61565b9150614b1d82614ab6565b604082019050919050565b60006020820190508181036000830152614b4181614b05565b9050919050565b7f4e487b7100000000000000000000000000000000000000000000000000000000600052603260045260246000fd5b7f4552433732313a206f776e657220717565727920666f72206e6f6e657869737460008201527f656e7420746f6b656e0000000000000000000000000000000000000000000000602082015250565b6000614bd3602983613b61565b9150614bde82614b77565b604082019050919050565b60006020820190508181036000830152614c0281614bc6565b9050919050565b7f4552433732313a2062616c616e636520717565727920666f7220746865207a6560008201527f726f206164647265737300000000000000000000000000000000000000000000602082015250565b6000614c65602a83613b61565b9150614c7082614c09565b604082019050919050565b60006020820190508181036000830152614c9481614c58565b9050919050565b7f47656e4e46543a20496e76616c69642065746820616d6f756e74000000000000600082015250565b6000614cd1601a83613b61565b9150614cdc82614c9b565b602082019050919050565b60006020820190508181036000830152614d0081614cc4565b9050919050565b7f47656e4e46543a207075626c69632073616c65206861736e277420737461727460008201527f6564000000000000000000000000000000000000000000000000000000000000602082015250565b6000614d63602283613b61565b9150614d6e82614d07565b604082019050919050565b60006020820190508181036000830152614d9281614d56565b9050919050565b7f4552433732314d657461646174613a2055524920717565727920666f72206e6f60008201527f6e6578697374656e7420746f6b656e0000000000000000000000000000000000602082015250565b6000614df5602f83613b61565b9150614e0082614d99565b604082019050919050565b60006020820190508181036000830152614e2481614de8565b9050919050565b600081905092915050565b60008190508160005260206000209050919050565b60008154614e588161426c565b614e628186614e2b565b94506001821660008114614e7d5760018114614e8e57614ec1565b60ff19831686528186019350614ec1565b614e9785614e36565b60005b83811015614eb957815481890152600182019150602081019050614e9a565b838801955050505b50505092915050565b6000614ed582613b56565b614edf8185614e2b565b9350614eef818560208601613b72565b80840191505092915050565b6000614f078286614e4b565b9150614f138285614eca565b9150614f1f8284614e4b565b9150819050949350505050565b6000614f388284614e4b565b915081905092915050565b7f4f776e61626c653a206e6577206f776e657220697320746865207a65726f206160008201527f6464726573730000000000000000000000000000000000000000000000000000602082015250565b6000614f9f602683613b61565b9150614faa82614f43565b604082019050919050565b60006020820190508181036000830152614fce81614f92565b9050919050565b7f4552433732313a206f70657261746f7220717565727920666f72206e6f6e657860008201527f697374656e7420746f6b656e0000000000000000000000000000000000000000602082015250565b6000615031602c83613b61565b915061503c82614fd5565b604082019050919050565b6000602082019050818103600083015261506081615024565b9050919050565b7f4552433732313a207472616e736665722066726f6d20696e636f72726563742060008201527f6f776e6572000000000000000000000000000000000000000000000000000000602082015250565b60006150c3602583613b61565b91506150ce82615067565b604082019050919050565b600060208201905081810360008301526150f2816150b6565b9050919050565b7f4552433732313a207472616e7366657220746f20746865207a65726f2061646460008201527f7265737300000000000000000000000000000000000000000000000000000000602082015250565b6000615155602483613b61565b9150615160826150f9565b604082019050919050565b6000602082019050818103600083015261518481615148565b9050919050565b600061519682613c11565b91506151a183613c11565b9250828210156151b4576151b3614603565b5b828203905092915050565b7f576974686472617761626c653a2063616e6e6f7420776974686472617720746f60008201527f207a65726f206164647265737300000000000000000000000000000000000000602082015250565b600061521b602d83613b61565b9150615226826151bf565b604082019050919050565b6000602082019050818103600083015261524a8161520e565b9050919050565b60008151905061526081613c1b565b92915050565b60006020828403121561527c5761527b613a91565b5b600061528a84828501615251565b91505092915050565b7f576974686472617761626c653a2063616e6e6f7420776974686472617720302060008201527f4552433230000000000000000000000000000000000000000000000000000000602082015250565b60006152ef602583613b61565b91506152fa82615293565b604082019050919050565b6000602082019050818103600083015261531e816152e2565b9050919050565b600060408201905061533a6000830185613ca6565b6153476020830184613da0565b9392505050565b60008151905061535d81613e5d565b92915050565b60006020828403121561537957615378613a91565b5b60006153878482850161534e565b91505092915050565b7f576974686472617761626c653a2063616e6e6f7420776974686472617720302060008201527f4554480000000000000000000000000000000000000000000000000000000000602082015250565b60006153ec602383613b61565b91506153f782615390565b604082019050919050565b6000602082019050818103600083015261541b816153df565b9050919050565b7f5061757361626c653a206e6f7420706175736564000000000000000000000000600082015250565b6000615458601483613b61565b915061546382615422565b602082019050919050565b600060208201905081810360008301526154878161544b565b9050919050565b7f4552433732313a20617070726f766520746f2063616c6c657200000000000000600082015250565b60006154c4601983613b61565b91506154cf8261548e565b602082019050919050565b600060208201905081810360008301526154f3816154b7565b9050919050565b7f4552433732313a207472616e7366657220746f206e6f6e20455243373231526560008201527f63656976657220696d706c656d656e7465720000000000000000000000000000602082015250565b6000615556603283613b61565b9150615561826154fa565b604082019050919050565b6000602082019050818103600083015261558581615549565b9050919050565b7f4e487b7100000000000000000000000000000000000000000000000000000000600052601260045260246000fd5b60006155c682613c11565b91506155d183613c11565b9250826155e1576155e061558c565b5b828204905092915050565b60006155f782613c11565b915061560283613c11565b9250826156125761561161558c565b5b828206905092915050565b7f47656e4e46543a207472616e7366657273206172652070617573656400000000600082015250565b6000615653601c83613b61565b915061565e8261561d565b602082019050919050565b6000602082019050818103600083015261568281615646565b9050919050565b600081519050919050565b600082825260208201905092915050565b60006156b082615689565b6156ba8185615694565b93506156ca818560208601613b72565b6156d381613ba5565b840191505092915050565b60006080820190506156f36000830187613ca6565b6157006020830186613ca6565b61570d6040830185613da0565b818103606083015261571f81846156a5565b905095945050505050565b60008151905061573981613ac7565b92915050565b60006020828403121561575557615754613a91565b5b60006157638482850161572a565b91505092915050565b7f4552433732313a206d696e7420746f20746865207a65726f2061646472657373600082015250565b60006157a2602083613b61565b91506157ad8261576c565b602082019050919050565b600060208201905081810360008301526157d181615795565b9050919050565b7f4552433732313a20746f6b656e20616c7265616479206d696e74656400000000600082015250565b600061580e601c83613b61565b9150615819826157d8565b602082019050919050565b6000602082019050818103600083015261583d81615801565b9050919050565b7f4e487b7100000000000000000000000000000000000000000000000000000000600052603160045260246000fdfea264697066735822122053ae21dc1ba9d4b15b4e2b615e9e3bbf7d00c401a8565dca6bab8549d74ab11164736f6c634300080d0033",
  "immutableReferences": {},
  "source": "// SPDX-License-Identifier: MIT\r\n\r\npragma solidity ^0.8.0;\r\n\r\nimport \"@openzeppelin/contracts/token/ERC721/ERC721.sol\";\r\nimport \"@openzeppelin/contracts/token/ERC721/extensions/ERC721Enumerable.sol\";\r\nimport \"@openzeppelin/contracts/security/Pausable.sol\";\r\nimport \"@openzeppelin/contracts/utils/Counters.sol\";\r\nimport \"@openzeppelin/contracts/utils/Strings.sol\";\r\nimport \"./Withdrawable.sol\";\r\n\r\ncontract GenNFT is\r\n  ERC721,\r\n  ERC721Enumerable,\r\n  Pausable,\r\n  Withdrawable\r\n{\r\n  using Counters for Counters.Counter;\r\n  using Strings for uint256;\r\n\r\n  Counters.Counter private _tokenIdCounter;\r\n\r\n  struct Whitelist {\r\n    address account;\r\n    uint256 allocation;\r\n    uint256 price;\r\n  }\r\n\r\n  string private _hiddenBaseURI;\r\n  //string private _hiddenExtension;\r\n  string private _revealBaseURI;\r\n  string private _revealExtension;\r\n  bool private _revealed;\r\n\r\n  uint256 private _maxSupply;\r\n  uint256 private _price;\r\n  uint256 private _maxMintAmount;\r\n\r\n  uint256 private _whitelistSaleTime;\r\n  uint256 private _publicSaleTime;\r\n\r\n  bool private _transfersPaused;\r\n\r\n  mapping(address => uint256) private _whitelist;\r\n\r\n  constructor(\r\n    uint256 maxSupply_,\r\n    uint256 price_,\r\n    uint256 maxMintAmount_,\r\n    uint256 whitelistSaleTime_,\r\n    uint256 publicSaleTime_,\r\n    string memory hiddenBaseURI_,\r\n    //string memory hiddenExtension_,\r\n    string memory revealBaseURI_,\r\n    string memory revealExtension_,\r\n    bool revealed_,\r\n    bool transfersPaused_\r\n  )\r\n    ERC721(\"GenNFT\", \"gNFT\")\r\n  {\r\n    _maxSupply = maxSupply_;\r\n    _price = price_;\r\n    _maxMintAmount = maxMintAmount_;\r\n    _whitelistSaleTime = whitelistSaleTime_;\r\n    _publicSaleTime = publicSaleTime_;\r\n    _hiddenBaseURI = hiddenBaseURI_;\r\n    //_hiddenExtension = hiddenExtension_;\r\n    _revealBaseURI = revealBaseURI_;\r\n    _revealExtension = revealExtension_;\r\n    _revealed = revealed_;\r\n    _transfersPaused = transfersPaused_;\r\n\r\n    _tokenIdCounter.increment();\r\n  }\r\n\r\n  function maxSupply() public view returns (uint256) {\r\n    return _maxSupply;\r\n  }\r\n\r\n  function price() public view returns (uint256) {\r\n    return _price;\r\n  }\r\n\r\n  function maxMintAmount() public view returns (uint256) {\r\n    return _maxMintAmount;\r\n  }\r\n\r\n  function pause() public onlyOwner {\r\n    _pause();\r\n  }\r\n\r\n  function unpause() public onlyOwner {\r\n    _unpause();\r\n  }\r\n\r\n  function mint(uint256 amount) external payable whenNotPaused {\r\n    require(amount >= 0, 'GenNFT: token amount is zero');\r\n    require(\r\n      balanceOf(msg.sender) + amount <= _maxMintAmount,\r\n      \"GenNFT: exceeds max mint limit\"\r\n    );\r\n    require(_price * amount == msg.value, \"GenNFT: Invalid eth amount\");\r\n    require(\r\n      totalSupply() + amount <= _maxSupply,\r\n      \"GenNFT: exceeds max supply\"\r\n    );\r\n    if (block.timestamp < _publicSaleTime) {\r\n      revert(\"GenNFT: public sale hasn't started\");\r\n    }\r\n\r\n    for (uint256 i = 0; i < amount; i++) {\r\n      _safeMint(msg.sender);\r\n    }\r\n  }\r\n\r\n  function mintWhitelist(\r\n    uint256 amount,\r\n    Whitelist calldata whitelist\r\n  )\r\n    external\r\n    payable\r\n    whenNotPaused\r\n  {\r\n    require(\r\n      msg.sender == whitelist.account,\r\n      \"GenNFT: sender not whitelisted\"\r\n    );\r\n    require(amount >= 0, \"GenNFT: token amount is zero\");\r\n    require(\r\n      _whitelist[msg.sender] + amount <= whitelist.allocation,\r\n      \"GenNFT: exceeds max mint limit\"\r\n    );\r\n    require(\r\n      whitelist.price * amount == msg.value,\r\n      \"GenNFT: invalid eth amount\"\r\n    );\r\n    require(\r\n      totalSupply() + amount <= _maxSupply,\r\n      \"GenNFT: exceeds max supply\"\r\n    );\r\n    if (block.timestamp < _whitelistSaleTime) {\r\n      revert(\"GenNFT: whitelist sale hasn't started\");\r\n    }\r\n\r\n    _whitelist[msg.sender] += amount;\r\n    for (uint256 i = 0; i < amount; i++) {\r\n      _safeMint(msg.sender);\r\n    }\r\n  }\r\n\r\n  function mintOwner(address to, uint256 amount) external onlyOwner {\r\n    for (uint256 i = 0; i < amount; i++) {\r\n      _safeMint(to);\r\n    }\r\n  }\r\n\r\n  function _safeMint(address to) internal {\r\n    uint256 tokenId = _tokenIdCounter.current();\r\n    require(tokenId <= _maxSupply, 'GenNFT: exceeds max supply');\r\n\r\n    _tokenIdCounter.increment();\r\n    _safeMint(to, tokenId);\r\n  }\r\n\r\n  function tokenURI(uint256 tokenId)\r\n    public\r\n    view\r\n    override\r\n    returns (string memory)\r\n  {\r\n    require(\r\n      _exists(tokenId),\r\n      \"ERC721Metadata: URI query for nonexistent token\"\r\n    );\r\n\r\n    if (_revealed) {\r\n      return\r\n        string(\r\n          abi.encodePacked(_revealBaseURI, tokenId.toString(), _revealExtension)\r\n        );\r\n    } else {\r\n      return\r\n        string(\r\n          abi.encodePacked(_hiddenBaseURI)\r\n          //abi.encodePacked(_hiddenBaseURI, tokenId.toString(), _hiddenExtension)\r\n        );\r\n    }\r\n  }\r\n\r\n  function transfersPaused() public view returns (bool) {\r\n    return _transfersPaused;\r\n  }\r\n\r\n  function setTransfersPaused(bool transfersPaused_) external onlyOwner {\r\n    _transfersPaused = transfersPaused_;\r\n  }\r\n\r\n  function _beforeTokenTransfer(\r\n    address from,\r\n    address to,\r\n    uint256 tokenId\r\n  ) internal override(ERC721, ERC721Enumerable) {\r\n    require(\r\n      !_transfersPaused || from == address(0),\r\n      'GenNFT: transfers are paused'\r\n    );\r\n\r\n    super._beforeTokenTransfer(from, to, tokenId);\r\n  }\r\n\r\n  function supportsInterface(bytes4 interfaceId)\r\n    public\r\n    view\r\n    override(ERC721, ERC721Enumerable)\r\n    returns (bool)\r\n  {\r\n    return\r\n      ERC721.supportsInterface(interfaceId) ||\r\n      ERC721Enumerable.supportsInterface(interfaceId);\r\n  }\r\n\r\n  function setMaxSupply(uint256 maxSupply_) external onlyOwner {\r\n    _maxSupply = maxSupply_;\r\n  }\r\n\r\n  function setPrice(uint256 price_) external onlyOwner {\r\n    _price = price_;\r\n  }\r\n\r\n  function setMaxMintAmount(uint256 maxMintAmount_) external onlyOwner {\r\n    _maxMintAmount = maxMintAmount_;\r\n  }\r\n\r\n/*   function setHiddenURI(string memory baseURI, string memory extension)\r\n    external\r\n    onlyOwner\r\n  {\r\n    _hiddenBaseURI = baseURI;\r\n    _hiddenExtension = extension;\r\n  } */\r\n\r\n  function setHiddenURI(string memory baseURI)\r\n    external\r\n    onlyOwner\r\n  {\r\n    _hiddenBaseURI = baseURI;\r\n  }\r\n\r\n  function reveal(string memory baseURI, string memory extension)\r\n    external\r\n    onlyOwner\r\n  {\r\n    _revealBaseURI = baseURI;\r\n    _revealExtension = extension;\r\n    _revealed = true;\r\n  }\r\n\r\n  function hide() external onlyOwner {\r\n    _revealBaseURI = '';\r\n    _revealExtension = '';\r\n    _revealed = false;\r\n  }\r\n\r\n  function whitelistSaleTime() public view returns (uint256) {\r\n    return _whitelistSaleTime;\r\n  }\r\n\r\n  function setWhitelistSaleTime(uint256 whitelistSaleTime_) external onlyOwner {\r\n    _whitelistSaleTime = whitelistSaleTime_;\r\n  }\r\n\r\n  function publicSaleTime() public view returns (uint256) {\r\n    return _publicSaleTime;\r\n  }\r\n\r\n  function setPublicSaleTime(uint256 publicSaleTime_) external onlyOwner {\r\n    _publicSaleTime = publicSaleTime_;\r\n  }\r\n}",
  "sourcePath": "/home/taurinos/workspace/nft-sale/contracts/NFTCreator.sol",
  "compiler": {
    "name": "solc",
    "version": "0.8.13+commit.abaa5c0e.Emscripten.clang"
  },
  "schemaVersion": "3.4.6",
  "updatedAt": "2022-03-31T16:15:32.853Z",
  "networkType": "ethereum",
  "devdoc": {
    "kind": "dev",
    "methods": {
      "approve(address,uint256)": {
        "details": "See {IERC721-approve}."
      },
      "balanceOf(address)": {
        "details": "See {IERC721-balanceOf}."
      },
      "getApproved(uint256)": {
        "details": "See {IERC721-getApproved}."
      },
      "isApprovedForAll(address,address)": {
        "details": "See {IERC721-isApprovedForAll}."
      },
      "name()": {
        "details": "See {IERC721Metadata-name}."
      },
      "owner()": {
        "details": "Returns the address of the current owner."
      },
      "ownerOf(uint256)": {
        "details": "See {IERC721-ownerOf}."
      },
      "paused()": {
        "details": "Returns true if the contract is paused, and false otherwise."
      },
      "renounceOwnership()": {
        "details": "Leaves the contract without owner. It will not be possible to call `onlyOwner` functions anymore. Can only be called by the current owner. NOTE: Renouncing ownership will leave the contract without an owner, thereby removing any functionality that is only available to the owner."
      },
      "safeTransferFrom(address,address,uint256)": {
        "details": "See {IERC721-safeTransferFrom}."
      },
      "safeTransferFrom(address,address,uint256,bytes)": {
        "details": "See {IERC721-safeTransferFrom}."
      },
      "setApprovalForAll(address,bool)": {
        "details": "See {IERC721-setApprovalForAll}."
      },
      "symbol()": {
        "details": "See {IERC721Metadata-symbol}."
      },
      "tokenByIndex(uint256)": {
        "details": "See {IERC721Enumerable-tokenByIndex}."
      },
      "tokenOfOwnerByIndex(address,uint256)": {
        "details": "See {IERC721Enumerable-tokenOfOwnerByIndex}."
      },
      "tokenURI(uint256)": {
        "details": "See {IERC721Metadata-tokenURI}."
      },
      "totalSupply()": {
        "details": "See {IERC721Enumerable-totalSupply}."
      },
      "transferFrom(address,address,uint256)": {
        "details": "See {IERC721-transferFrom}."
      },
      "transferOwnership(address)": {
        "details": "Transfers ownership of the contract to a new account (`newOwner`). Can only be called by the current owner."
      }
    },
    "version": 1
  },
  "userdoc": {
    "kind": "user",
    "methods": {},
    "version": 1
  }
}