{
  "contractName": "GenNFT",
  "abi": [
    {
      "inputs": [
        {
          "components": [
            {
              "internalType": "address",
              "name": "signer",
              "type": "address"
            },
            {
              "internalType": "string",
              "name": "name",
              "type": "string"
            },
            {
              "internalType": "string",
              "name": "symbol",
              "type": "string"
            },
            {
              "internalType": "uint256",
              "name": "maxSupply",
              "type": "uint256"
            },
            {
              "internalType": "uint256",
              "name": "price",
              "type": "uint256"
            },
            {
              "internalType": "uint256",
              "name": "maxMintAmount",
              "type": "uint256"
            },
            {
              "internalType": "uint256",
              "name": "whitelistSaleTime",
              "type": "uint256"
            },
            {
              "internalType": "uint256",
              "name": "publicSaleTime",
              "type": "uint256"
            },
            {
              "internalType": "string",
              "name": "hiddenBaseURI",
              "type": "string"
            },
            {
              "internalType": "string",
              "name": "hiddenExtension",
              "type": "string"
            },
            {
              "internalType": "string",
              "name": "revealBaseURI",
              "type": "string"
            },
            {
              "internalType": "string",
              "name": "revealExtension",
              "type": "string"
            },
            {
              "internalType": "bool",
              "name": "revealed",
              "type": "bool"
            },
            {
              "internalType": "bool",
              "name": "transfersPaused",
              "type": "bool"
            }
          ],
          "internalType": "struct GenNFT.ConstructorParams",
          "name": "params",
          "type": "tuple"
        }
      ],
      "stateMutability": "nonpayable",
      "type": "constructor"
    },
    {
      "anonymous": false,
      "inputs": [
        {
          "indexed": true,
          "internalType": "address",
          "name": "owner",
          "type": "address"
        },
        {
          "indexed": true,
          "internalType": "address",
          "name": "approved",
          "type": "address"
        },
        {
          "indexed": true,
          "internalType": "uint256",
          "name": "tokenId",
          "type": "uint256"
        }
      ],
      "name": "Approval",
      "type": "event"
    },
    {
      "anonymous": false,
      "inputs": [
        {
          "indexed": true,
          "internalType": "address",
          "name": "owner",
          "type": "address"
        },
        {
          "indexed": true,
          "internalType": "address",
          "name": "operator",
          "type": "address"
        },
        {
          "indexed": false,
          "internalType": "bool",
          "name": "approved",
          "type": "bool"
        }
      ],
      "name": "ApprovalForAll",
      "type": "event"
    },
    {
      "anonymous": false,
      "inputs": [
        {
          "indexed": true,
          "internalType": "address",
          "name": "previousOwner",
          "type": "address"
        },
        {
          "indexed": true,
          "internalType": "address",
          "name": "newOwner",
          "type": "address"
        }
      ],
      "name": "OwnershipTransferred",
      "type": "event"
    },
    {
      "anonymous": false,
      "inputs": [
        {
          "indexed": false,
          "internalType": "address",
          "name": "account",
          "type": "address"
        }
      ],
      "name": "Paused",
      "type": "event"
    },
    {
      "anonymous": false,
      "inputs": [
        {
          "indexed": true,
          "internalType": "address",
          "name": "from",
          "type": "address"
        },
        {
          "indexed": true,
          "internalType": "address",
          "name": "to",
          "type": "address"
        },
        {
          "indexed": true,
          "internalType": "uint256",
          "name": "tokenId",
          "type": "uint256"
        }
      ],
      "name": "Transfer",
      "type": "event"
    },
    {
      "anonymous": false,
      "inputs": [
        {
          "indexed": false,
          "internalType": "address",
          "name": "account",
          "type": "address"
        }
      ],
      "name": "Unpaused",
      "type": "event"
    },
    {
      "inputs": [
        {
          "internalType": "address",
          "name": "to",
          "type": "address"
        },
        {
          "internalType": "uint256",
          "name": "tokenId",
          "type": "uint256"
        }
      ],
      "name": "approve",
      "outputs": [],
      "stateMutability": "nonpayable",
      "type": "function"
    },
    {
      "inputs": [
        {
          "internalType": "address",
          "name": "owner",
          "type": "address"
        }
      ],
      "name": "balanceOf",
      "outputs": [
        {
          "internalType": "uint256",
          "name": "",
          "type": "uint256"
        }
      ],
      "stateMutability": "view",
      "type": "function"
    },
    {
      "inputs": [
        {
          "internalType": "uint256",
          "name": "tokenId",
          "type": "uint256"
        }
      ],
      "name": "getApproved",
      "outputs": [
        {
          "internalType": "address",
          "name": "",
          "type": "address"
        }
      ],
      "stateMutability": "view",
      "type": "function"
    },
    {
      "inputs": [
        {
          "internalType": "address",
          "name": "owner",
          "type": "address"
        },
        {
          "internalType": "address",
          "name": "operator",
          "type": "address"
        }
      ],
      "name": "isApprovedForAll",
      "outputs": [
        {
          "internalType": "bool",
          "name": "",
          "type": "bool"
        }
      ],
      "stateMutability": "view",
      "type": "function"
    },
    {
      "inputs": [],
      "name": "name",
      "outputs": [
        {
          "internalType": "string",
          "name": "",
          "type": "string"
        }
      ],
      "stateMutability": "view",
      "type": "function"
    },
    {
      "inputs": [],
      "name": "owner",
      "outputs": [
        {
          "internalType": "address",
          "name": "",
          "type": "address"
        }
      ],
      "stateMutability": "view",
      "type": "function"
    },
    {
      "inputs": [
        {
          "internalType": "uint256",
          "name": "tokenId",
          "type": "uint256"
        }
      ],
      "name": "ownerOf",
      "outputs": [
        {
          "internalType": "address",
          "name": "",
          "type": "address"
        }
      ],
      "stateMutability": "view",
      "type": "function"
    },
    {
      "inputs": [],
      "name": "paused",
      "outputs": [
        {
          "internalType": "bool",
          "name": "",
          "type": "bool"
        }
      ],
      "stateMutability": "view",
      "type": "function"
    },
    {
      "inputs": [],
      "name": "renounceOwnership",
      "outputs": [],
      "stateMutability": "nonpayable",
      "type": "function"
    },
    {
      "inputs": [
        {
          "internalType": "address",
          "name": "from",
          "type": "address"
        },
        {
          "internalType": "address",
          "name": "to",
          "type": "address"
        },
        {
          "internalType": "uint256",
          "name": "tokenId",
          "type": "uint256"
        }
      ],
      "name": "safeTransferFrom",
      "outputs": [],
      "stateMutability": "nonpayable",
      "type": "function"
    },
    {
      "inputs": [
        {
          "internalType": "address",
          "name": "from",
          "type": "address"
        },
        {
          "internalType": "address",
          "name": "to",
          "type": "address"
        },
        {
          "internalType": "uint256",
          "name": "tokenId",
          "type": "uint256"
        },
        {
          "internalType": "bytes",
          "name": "_data",
          "type": "bytes"
        }
      ],
      "name": "safeTransferFrom",
      "outputs": [],
      "stateMutability": "nonpayable",
      "type": "function"
    },
    {
      "inputs": [
        {
          "internalType": "address",
          "name": "operator",
          "type": "address"
        },
        {
          "internalType": "bool",
          "name": "approved",
          "type": "bool"
        }
      ],
      "name": "setApprovalForAll",
      "outputs": [],
      "stateMutability": "nonpayable",
      "type": "function"
    },
    {
      "inputs": [],
      "name": "symbol",
      "outputs": [
        {
          "internalType": "string",
          "name": "",
          "type": "string"
        }
      ],
      "stateMutability": "view",
      "type": "function"
    },
    {
      "inputs": [
        {
          "internalType": "uint256",
          "name": "index",
          "type": "uint256"
        }
      ],
      "name": "tokenByIndex",
      "outputs": [
        {
          "internalType": "uint256",
          "name": "",
          "type": "uint256"
        }
      ],
      "stateMutability": "view",
      "type": "function"
    },
    {
      "inputs": [
        {
          "internalType": "address",
          "name": "owner",
          "type": "address"
        },
        {
          "internalType": "uint256",
          "name": "index",
          "type": "uint256"
        }
      ],
      "name": "tokenOfOwnerByIndex",
      "outputs": [
        {
          "internalType": "uint256",
          "name": "",
          "type": "uint256"
        }
      ],
      "stateMutability": "view",
      "type": "function"
    },
    {
      "inputs": [],
      "name": "totalSupply",
      "outputs": [
        {
          "internalType": "uint256",
          "name": "",
          "type": "uint256"
        }
      ],
      "stateMutability": "view",
      "type": "function"
    },
    {
      "inputs": [
        {
          "internalType": "address",
          "name": "from",
          "type": "address"
        },
        {
          "internalType": "address",
          "name": "to",
          "type": "address"
        },
        {
          "internalType": "uint256",
          "name": "tokenId",
          "type": "uint256"
        }
      ],
      "name": "transferFrom",
      "outputs": [],
      "stateMutability": "nonpayable",
      "type": "function"
    },
    {
      "inputs": [
        {
          "internalType": "address",
          "name": "newOwner",
          "type": "address"
        }
      ],
      "name": "transferOwnership",
      "outputs": [],
      "stateMutability": "nonpayable",
      "type": "function"
    },
    {
      "inputs": [],
      "name": "uniq",
      "outputs": [
        {
          "internalType": "bytes32",
          "name": "",
          "type": "bytes32"
        }
      ],
      "stateMutability": "view",
      "type": "function"
    },
    {
      "inputs": [],
      "name": "withdraw",
      "outputs": [],
      "stateMutability": "nonpayable",
      "type": "function"
    },
    {
      "inputs": [
        {
          "internalType": "address",
          "name": "to",
          "type": "address"
        }
      ],
      "name": "withdraw",
      "outputs": [],
      "stateMutability": "nonpayable",
      "type": "function"
    },
    {
      "inputs": [
        {
          "internalType": "address",
          "name": "token",
          "type": "address"
        },
        {
          "internalType": "address",
          "name": "to",
          "type": "address"
        }
      ],
      "name": "withdrawToken",
      "outputs": [],
      "stateMutability": "nonpayable",
      "type": "function"
    },
    {
      "inputs": [
        {
          "internalType": "address",
          "name": "token",
          "type": "address"
        }
      ],
      "name": "withdrawToken",
      "outputs": [],
      "stateMutability": "nonpayable",
      "type": "function"
    },
    {
      "inputs": [],
      "name": "signer",
      "outputs": [
        {
          "internalType": "address",
          "name": "",
          "type": "address"
        }
      ],
      "stateMutability": "view",
      "type": "function"
    },
    {
      "inputs": [
        {
          "internalType": "address",
          "name": "signer_",
          "type": "address"
        }
      ],
      "name": "setSigner",
      "outputs": [],
      "stateMutability": "nonpayable",
      "type": "function"
    },
    {
      "inputs": [],
      "name": "maxSupply",
      "outputs": [
        {
          "internalType": "uint256",
          "name": "",
          "type": "uint256"
        }
      ],
      "stateMutability": "view",
      "type": "function"
    },
    {
      "inputs": [],
      "name": "price",
      "outputs": [
        {
          "internalType": "uint256",
          "name": "",
          "type": "uint256"
        }
      ],
      "stateMutability": "view",
      "type": "function"
    },
    {
      "inputs": [],
      "name": "maxMintAmount",
      "outputs": [
        {
          "internalType": "uint256",
          "name": "",
          "type": "uint256"
        }
      ],
      "stateMutability": "view",
      "type": "function"
    },
    {
      "inputs": [],
      "name": "pause",
      "outputs": [],
      "stateMutability": "nonpayable",
      "type": "function"
    },
    {
      "inputs": [],
      "name": "unpause",
      "outputs": [],
      "stateMutability": "nonpayable",
      "type": "function"
    },
    {
      "inputs": [
        {
          "internalType": "uint256",
          "name": "amount",
          "type": "uint256"
        }
      ],
      "name": "mint",
      "outputs": [],
      "stateMutability": "payable",
      "type": "function"
    },
    {
      "inputs": [
        {
          "internalType": "uint256",
          "name": "amount",
          "type": "uint256"
        },
        {
          "components": [
            {
              "internalType": "address",
              "name": "account",
              "type": "address"
            },
            {
              "internalType": "uint256",
              "name": "allocation",
              "type": "uint256"
            },
            {
              "internalType": "uint256",
              "name": "price",
              "type": "uint256"
            }
          ],
          "internalType": "struct GenNFT.Whitelist",
          "name": "whitelist",
          "type": "tuple"
        },
        {
          "components": [
            {
              "internalType": "bytes32",
              "name": "nonce",
              "type": "bytes32"
            },
            {
              "internalType": "bytes32",
              "name": "r",
              "type": "bytes32"
            },
            {
              "internalType": "bytes32",
              "name": "s",
              "type": "bytes32"
            },
            {
              "internalType": "uint8",
              "name": "v",
              "type": "uint8"
            }
          ],
          "internalType": "struct Signable.Signature",
          "name": "signature",
          "type": "tuple"
        }
      ],
      "name": "mintWhitelist",
      "outputs": [],
      "stateMutability": "payable",
      "type": "function"
    },
    {
      "inputs": [
        {
          "internalType": "address",
          "name": "to",
          "type": "address"
        },
        {
          "internalType": "uint256",
          "name": "amount",
          "type": "uint256"
        }
      ],
      "name": "mintOwner",
      "outputs": [],
      "stateMutability": "nonpayable",
      "type": "function"
    },
    {
      "inputs": [
        {
          "internalType": "uint256",
          "name": "tokenId",
          "type": "uint256"
        }
      ],
      "name": "tokenURI",
      "outputs": [
        {
          "internalType": "string",
          "name": "",
          "type": "string"
        }
      ],
      "stateMutability": "view",
      "type": "function"
    },
    {
      "inputs": [],
      "name": "transfersPaused",
      "outputs": [
        {
          "internalType": "bool",
          "name": "",
          "type": "bool"
        }
      ],
      "stateMutability": "view",
      "type": "function"
    },
    {
      "inputs": [
        {
          "internalType": "bool",
          "name": "transfersPaused_",
          "type": "bool"
        }
      ],
      "name": "setTransfersPaused",
      "outputs": [],
      "stateMutability": "nonpayable",
      "type": "function"
    },
    {
      "inputs": [
        {
          "internalType": "bytes4",
          "name": "interfaceId",
          "type": "bytes4"
        }
      ],
      "name": "supportsInterface",
      "outputs": [
        {
          "internalType": "bool",
          "name": "",
          "type": "bool"
        }
      ],
      "stateMutability": "view",
      "type": "function"
    },
    {
      "inputs": [
        {
          "internalType": "uint256",
          "name": "maxSupply_",
          "type": "uint256"
        }
      ],
      "name": "setMaxSupply",
      "outputs": [],
      "stateMutability": "nonpayable",
      "type": "function"
    },
    {
      "inputs": [
        {
          "internalType": "uint256",
          "name": "price_",
          "type": "uint256"
        }
      ],
      "name": "setPrice",
      "outputs": [],
      "stateMutability": "nonpayable",
      "type": "function"
    },
    {
      "inputs": [
        {
          "internalType": "uint256",
          "name": "maxMintAmount_",
          "type": "uint256"
        }
      ],
      "name": "setMaxMintAmount",
      "outputs": [],
      "stateMutability": "nonpayable",
      "type": "function"
    },
    {
      "inputs": [
        {
          "internalType": "string",
          "name": "baseURI",
          "type": "string"
        },
        {
          "internalType": "string",
          "name": "extension",
          "type": "string"
        }
      ],
      "name": "setHiddenURI",
      "outputs": [],
      "stateMutability": "nonpayable",
      "type": "function"
    },
    {
      "inputs": [
        {
          "internalType": "string",
          "name": "baseURI",
          "type": "string"
        },
        {
          "internalType": "string",
          "name": "extension",
          "type": "string"
        }
      ],
      "name": "reveal",
      "outputs": [],
      "stateMutability": "nonpayable",
      "type": "function"
    },
    {
      "inputs": [],
      "name": "hide",
      "outputs": [],
      "stateMutability": "nonpayable",
      "type": "function"
    },
    {
      "inputs": [],
      "name": "whitelistSaleTime",
      "outputs": [
        {
          "internalType": "uint256",
          "name": "",
          "type": "uint256"
        }
      ],
      "stateMutability": "view",
      "type": "function"
    },
    {
      "inputs": [
        {
          "internalType": "uint256",
          "name": "whitelistSaleTime_",
          "type": "uint256"
        }
      ],
      "name": "setWhitelistSaleTime",
      "outputs": [],
      "stateMutability": "nonpayable",
      "type": "function"
    },
    {
      "inputs": [],
      "name": "publicSaleTime",
      "outputs": [
        {
          "internalType": "uint256",
          "name": "",
          "type": "uint256"
        }
      ],
      "stateMutability": "view",
      "type": "function"
    },
    {
      "inputs": [
        {
          "internalType": "uint256",
          "name": "publicSaleTime_",
          "type": "uint256"
        }
      ],
      "name": "setPublicSaleTime",
      "outputs": [],
      "stateMutability": "nonpayable",
      "type": "function"
    }
  ],
  "bytecode": "0x60806040523480156200001157600080fd5b5060405162006bc938038062006bc9833981810160405281019062000037919062000872565b8060200151816040015181600090805190602001906200005992919062000315565b5080600190805190602001906200007292919062000315565b5050506000600a60006101000a81548160ff0219169083151502179055504230604051602001620000a592919062000938565b60405160208183030381529060405280519060200120600b81905550620000e1620000d56200023160201b60201c565b6200023960201b60201c565b8060000151600e60006101000a81548173ffffffffffffffffffffffffffffffffffffffff021916908373ffffffffffffffffffffffffffffffffffffffff160217905550806060015160158190555080608001516016819055508060a001516017819055508060c001516018819055508060e00151601981905550806101000151601090805190602001906200017a92919062000315565b50806101200151601190805190602001906200019892919062000315565b5080610140015160129080519060200190620001b692919062000315565b5080610160015160139080519060200190620001d492919062000315565b50806101800151601460006101000a81548160ff021916908315150217905550806101a00151601a60006101000a81548160ff0219169083151502179055506200022a600f620002ff60201b620027401760201c565b50620009cc565b600033905090565b6000600d60009054906101000a900473ffffffffffffffffffffffffffffffffffffffff16905081600d60006101000a81548173ffffffffffffffffffffffffffffffffffffffff021916908373ffffffffffffffffffffffffffffffffffffffff1602179055508173ffffffffffffffffffffffffffffffffffffffff168173ffffffffffffffffffffffffffffffffffffffff167f8be0079c531659141344cd1fd0a4f28419497f9722a3daafe3b4186f6b6457e060405160405180910390a35050565b6001816000016000828254019250508190555050565b828054620003239062000997565b90600052602060002090601f01602090048101928262000347576000855562000393565b82601f106200036257805160ff191683800117855562000393565b8280016001018555821562000393579182015b828111156200039257825182559160200191906001019062000375565b5b509050620003a29190620003a6565b5090565b5b80821115620003c1576000816000905550600101620003a7565b5090565b6000604051905090565b600080fd5b600080fd5b600080fd5b6000601f19601f8301169050919050565b7f4e487b7100000000000000000000000000000000000000000000000000000000600052604160045260246000fd5b6200042982620003de565b810181811067ffffffffffffffff821117156200044b576200044a620003ef565b5b80604052505050565b600062000460620003c5565b90506200046e82826200041e565b919050565b600080fd5b600073ffffffffffffffffffffffffffffffffffffffff82169050919050565b6000620004a58262000478565b9050919050565b620004b78162000498565b8114620004c357600080fd5b50565b600081519050620004d781620004ac565b92915050565b600080fd5b600080fd5b600067ffffffffffffffff821115620005055762000504620003ef565b5b6200051082620003de565b9050602081019050919050565b60005b838110156200053d57808201518184015260208101905062000520565b838111156200054d576000848401525b50505050565b60006200056a6200056484620004e7565b62000454565b905082815260208101848484011115620005895762000588620004e2565b5b620005968482856200051d565b509392505050565b600082601f830112620005b657620005b5620004dd565b5b8151620005c884826020860162000553565b91505092915050565b6000819050919050565b620005e681620005d1565b8114620005f257600080fd5b50565b6000815190506200060681620005db565b92915050565b60008115159050919050565b62000623816200060c565b81146200062f57600080fd5b50565b600081519050620006438162000618565b92915050565b60006101c08284031215620006635762000662620003d9565b5b620006706101c062000454565b905060006200068284828501620004c6565b600083015250602082015167ffffffffffffffff811115620006a957620006a862000473565b5b620006b7848285016200059e565b602083015250604082015167ffffffffffffffff811115620006de57620006dd62000473565b5b620006ec848285016200059e565b60408301525060606200070284828501620005f5565b60608301525060806200071884828501620005f5565b60808301525060a06200072e84828501620005f5565b60a08301525060c06200074484828501620005f5565b60c08301525060e06200075a84828501620005f5565b60e08301525061010082015167ffffffffffffffff81111562000782576200078162000473565b5b62000790848285016200059e565b6101008301525061012082015167ffffffffffffffff811115620007b957620007b862000473565b5b620007c7848285016200059e565b6101208301525061014082015167ffffffffffffffff811115620007f057620007ef62000473565b5b620007fe848285016200059e565b6101408301525061016082015167ffffffffffffffff81111562000827576200082662000473565b5b62000835848285016200059e565b610160830152506101806200084d8482850162000632565b610180830152506101a0620008658482850162000632565b6101a08301525092915050565b6000602082840312156200088b576200088a620003cf565b5b600082015167ffffffffffffffff811115620008ac57620008ab620003d4565b5b620008ba8482850162000649565b91505092915050565b6000819050919050565b620008e2620008dc82620005d1565b620008c3565b82525050565b60008160601b9050919050565b60006200090282620008e8565b9050919050565b60006200091682620008f5565b9050919050565b620009326200092c8262000498565b62000909565b82525050565b6000620009468285620008cd565b6020820191506200095882846200091d565b6014820191508190509392505050565b7f4e487b7100000000000000000000000000000000000000000000000000000000600052602260045260246000fd5b60006002820490506001821680620009b057607f821691505b602082108103620009c657620009c562000968565b5b50919050565b6161ed80620009dc6000396000f3fe6080604052600436106102885760003560e01c80635c975abb1161015a5780639dccd62f116100c1578063b62a76251161007a578063b62a76251461094c578063b88d4fde14610963578063c87b56dd1461098c578063d5abeb01146109c9578063e985e9c5146109f4578063f2fde38b14610a3157610288565b80639dccd62f1461085f578063a035b1fe14610888578063a0712d68146108b3578063a22cb465146108cf578063ae9320a4146108f8578063afdea6c21461092357610288565b80638456cb59116101135780638456cb5914610784578063894760691461079b5780638da5cb5b146107c45780638ea466b9146107ef57806391b7f5ed1461080b57806395d89b411461083457610288565b80635c975abb146106765780636352211e146106a15780636c19e783146106de5780636f8b44b01461070757806370a0823114610730578063715018a61461076d57610288565b80632ecea7b7116101fe57806342842e0e116101b757806342842e0e1461056a57806344e46dff146105935780634563f30a146105bc5780634f6ccce7146105e757806351cff8d9146106245780635ba1b2c71461064d57610288565b80632ecea7b7146104825780632f745c59146104ad5780633aeac4e1146104ea5780633ccfd60b146105135780633f4ba83a1461052a578063408cbf941461054157610288565b806311b7e5e71161025057806311b7e5e71461038457806318160ddd146103ad5780632344be0a146103d8578063238ac93314610403578063239c70ae1461042e57806323b872dd1461045957610288565b806301ffc9a71461028d57806306fdde03146102ca578063081812fc146102f5578063088a4ed014610332578063095ea7b31461035b575b600080fd5b34801561029957600080fd5b506102b460048036038101906102af9190613f81565b610a5a565b6040516102c19190613fc9565b60405180910390f35b3480156102d657600080fd5b506102df610a7c565b6040516102ec919061407d565b60405180910390f35b34801561030157600080fd5b5061031c600480360381019061031791906140d5565b610b0e565b6040516103299190614143565b60405180910390f35b34801561033e57600080fd5b50610359600480360381019061035491906140d5565b610b93565b005b34801561036757600080fd5b50610382600480360381019061037d919061418a565b610c19565b005b34801561039057600080fd5b506103ab60048036038101906103a691906140d5565b610d30565b005b3480156103b957600080fd5b506103c2610db6565b6040516103cf91906141d9565b60405180910390f35b3480156103e457600080fd5b506103ed610dc3565b6040516103fa91906141d9565b60405180910390f35b34801561040f57600080fd5b50610418610dcd565b6040516104259190614143565b60405180910390f35b34801561043a57600080fd5b50610443610df7565b60405161045091906141d9565b60405180910390f35b34801561046557600080fd5b50610480600480360381019061047b91906141f4565b610e01565b005b34801561048e57600080fd5b50610497610e61565b6040516104a491906141d9565b60405180910390f35b3480156104b957600080fd5b506104d460048036038101906104cf919061418a565b610e6b565b6040516104e191906141d9565b60405180910390f35b3480156104f657600080fd5b50610511600480360381019061050c9190614247565b610f10565b005b34801561051f57600080fd5b50610528611009565b005b34801561053657600080fd5b5061053f611092565b005b34801561054d57600080fd5b506105686004803603810190610563919061418a565b611118565b005b34801561057657600080fd5b50610591600480360381019061058c91906141f4565b6111c0565b005b34801561059f57600080fd5b506105ba60048036038101906105b591906142b3565b6111e0565b005b3480156105c857600080fd5b506105d1611279565b6040516105de9190613fc9565b60405180910390f35b3480156105f357600080fd5b5061060e600480360381019061060991906140d5565b611290565b60405161061b91906141d9565b60405180910390f35b34801561063057600080fd5b5061064b600480360381019061064691906142e0565b611301565b005b34801561065957600080fd5b50610674600480360381019061066f9190614442565b61138b565b005b34801561068257600080fd5b5061068b611454565b6040516106989190613fc9565b60405180910390f35b3480156106ad57600080fd5b506106c860048036038101906106c391906140d5565b61146b565b6040516106d59190614143565b60405180910390f35b3480156106ea57600080fd5b50610705600480360381019061070091906142e0565b61151c565b005b34801561071357600080fd5b5061072e600480360381019061072991906140d5565b6115dc565b005b34801561073c57600080fd5b50610757600480360381019061075291906142e0565b611662565b60405161076491906141d9565b60405180910390f35b34801561077957600080fd5b50610782611719565b005b34801561079057600080fd5b506107996117a1565b005b3480156107a757600080fd5b506107c260048036038101906107bd91906142e0565b611827565b005b3480156107d057600080fd5b506107d961191f565b6040516107e69190614143565b60405180910390f35b610809600480360381019061080491906144fd565b611949565b005b34801561081757600080fd5b50610832600480360381019061082d91906140d5565b611f2a565b005b34801561084057600080fd5b50610849611fb0565b604051610856919061407d565b60405180910390f35b34801561086b57600080fd5b5061088660048036038101906108819190614442565b612042565b005b34801561089457600080fd5b5061089d6120f0565b6040516108aa91906141d9565b60405180910390f35b6108cd60048036038101906108c891906140d5565b6120fa565b005b3480156108db57600080fd5b506108f660048036038101906108f19190614551565b6122f4565b005b34801561090457600080fd5b5061090d61230a565b60405161091a91906145aa565b60405180910390f35b34801561092f57600080fd5b5061094a600480360381019061094591906140d5565b612314565b005b34801561095857600080fd5b5061096161239a565b005b34801561096f57600080fd5b5061098a60048036038101906109859190614666565b61247f565b005b34801561099857600080fd5b506109b360048036038101906109ae91906140d5565b6124e1565b6040516109c0919061407d565b60405180910390f35b3480156109d557600080fd5b506109de6125ab565b6040516109eb91906141d9565b60405180910390f35b348015610a0057600080fd5b50610a1b6004803603810190610a169190614247565b6125b5565b604051610a289190613fc9565b60405180910390f35b348015610a3d57600080fd5b50610a586004803603810190610a5391906142e0565b612649565b005b6000610a6582612756565b80610a755750610a7482612838565b5b9050919050565b606060008054610a8b90614718565b80601f0160208091040260200160405190810160405280929190818152602001828054610ab790614718565b8015610b045780601f10610ad957610100808354040283529160200191610b04565b820191906000526020600020905b815481529060010190602001808311610ae757829003601f168201915b5050505050905090565b6000610b19826128b2565b610b58576040517f08c379a0000000000000000000000000000000000000000000000000000000008152600401610b4f906147bb565b60405180910390fd5b6004600083815260200190815260200160002060009054906101000a900473ffffffffffffffffffffffffffffffffffffffff169050919050565b610b9b61291e565b73ffffffffffffffffffffffffffffffffffffffff16610bb961191f565b73ffffffffffffffffffffffffffffffffffffffff1614610c0f576040517f08c379a0000000000000000000000000000000000000000000000000000000008152600401610c0690614827565b60405180910390fd5b8060178190555050565b6000610c248261146b565b90508073ffffffffffffffffffffffffffffffffffffffff168373ffffffffffffffffffffffffffffffffffffffff1603610c94576040517f08c379a0000000000000000000000000000000000000000000000000000000008152600401610c8b906148b9565b60405180910390fd5b8073ffffffffffffffffffffffffffffffffffffffff16610cb361291e565b73ffffffffffffffffffffffffffffffffffffffff161480610ce25750610ce181610cdc61291e565b6125b5565b5b610d21576040517f08c379a0000000000000000000000000000000000000000000000000000000008152600401610d189061494b565b60405180910390fd5b610d2b8383612926565b505050565b610d3861291e565b73ffffffffffffffffffffffffffffffffffffffff16610d5661191f565b73ffffffffffffffffffffffffffffffffffffffff1614610dac576040517f08c379a0000000000000000000000000000000000000000000000000000000008152600401610da390614827565b60405180910390fd5b8060198190555050565b6000600880549050905090565b6000601954905090565b6000600e60009054906101000a900473ffffffffffffffffffffffffffffffffffffffff16905090565b6000601754905090565b610e12610e0c61291e565b826129df565b610e51576040517f08c379a0000000000000000000000000000000000000000000000000000000008152600401610e48906149dd565b60405180910390fd5b610e5c838383612abd565b505050565b6000601854905090565b6000610e7683611662565b8210610eb7576040517f08c379a0000000000000000000000000000000000000000000000000000000008152600401610eae90614a6f565b60405180910390fd5b600660008473ffffffffffffffffffffffffffffffffffffffff1673ffffffffffffffffffffffffffffffffffffffff168152602001908152602001600020600083815260200190815260200160002054905092915050565b610f1861291e565b73ffffffffffffffffffffffffffffffffffffffff16610f3661191f565b73ffffffffffffffffffffffffffffffffffffffff1614610f8c576040517f08c379a0000000000000000000000000000000000000000000000000000000008152600401610f8390614827565b60405180910390fd5b600073ffffffffffffffffffffffffffffffffffffffff168273ffffffffffffffffffffffffffffffffffffffff1603610ffb576040517f08c379a0000000000000000000000000000000000000000000000000000000008152600401610ff290614b01565b60405180910390fd5b6110058282612d23565b5050565b61101161291e565b73ffffffffffffffffffffffffffffffffffffffff1661102f61191f565b73ffffffffffffffffffffffffffffffffffffffff1614611085576040517f08c379a000000000000000000000000000000000000000000000000000000000815260040161107c90614827565b60405180910390fd5b611090600033612d23565b565b61109a61291e565b73ffffffffffffffffffffffffffffffffffffffff166110b861191f565b73ffffffffffffffffffffffffffffffffffffffff161461110e576040517f08c379a000000000000000000000000000000000000000000000000000000000815260040161110590614827565b60405180910390fd5b611116612fa7565b565b61112061291e565b73ffffffffffffffffffffffffffffffffffffffff1661113e61191f565b73ffffffffffffffffffffffffffffffffffffffff1614611194576040517f08c379a000000000000000000000000000000000000000000000000000000000815260040161118b90614827565b60405180910390fd5b60005b818110156111bb576111a883613049565b80806111b390614b50565b915050611197565b505050565b6111db8383836040518060200160405280600081525061247f565b505050565b6111e861291e565b73ffffffffffffffffffffffffffffffffffffffff1661120661191f565b73ffffffffffffffffffffffffffffffffffffffff161461125c576040517f08c379a000000000000000000000000000000000000000000000000000000000815260040161125390614827565b60405180910390fd5b80601a60006101000a81548160ff02191690831515021790555050565b6000601a60009054906101000a900460ff16905090565b600061129a610db6565b82106112db576040517f08c379a00000000000000000000000000000000000000000000000000000000081526004016112d290614c0a565b60405180910390fd5b600882815481106112ef576112ee614c2a565b5b90600052602060002001549050919050565b61130961291e565b73ffffffffffffffffffffffffffffffffffffffff1661132761191f565b73ffffffffffffffffffffffffffffffffffffffff161461137d576040517f08c379a000000000000000000000000000000000000000000000000000000000815260040161137490614827565b60405180910390fd5b611388600082612d23565b50565b61139361291e565b73ffffffffffffffffffffffffffffffffffffffff166113b161191f565b73ffffffffffffffffffffffffffffffffffffffff1614611407576040517f08c379a00000000000000000000000000000000000000000000000000000000081526004016113fe90614827565b60405180910390fd5b816012908051906020019061141d929190613e72565b508060139080519060200190611434929190613e72565b506001601460006101000a81548160ff0219169083151502179055505050565b6000600a60009054906101000a900460ff16905090565b6000806002600084815260200190815260200160002060009054906101000a900473ffffffffffffffffffffffffffffffffffffffff169050600073ffffffffffffffffffffffffffffffffffffffff168173ffffffffffffffffffffffffffffffffffffffff1603611513576040517f08c379a000000000000000000000000000000000000000000000000000000000815260040161150a90614ccb565b60405180910390fd5b80915050919050565b61152461291e565b73ffffffffffffffffffffffffffffffffffffffff1661154261191f565b73ffffffffffffffffffffffffffffffffffffffff1614611598576040517f08c379a000000000000000000000000000000000000000000000000000000000815260040161158f90614827565b60405180910390fd5b80600e60006101000a81548173ffffffffffffffffffffffffffffffffffffffff021916908373ffffffffffffffffffffffffffffffffffffffff16021790555050565b6115e461291e565b73ffffffffffffffffffffffffffffffffffffffff1661160261191f565b73ffffffffffffffffffffffffffffffffffffffff1614611658576040517f08c379a000000000000000000000000000000000000000000000000000000000815260040161164f90614827565b60405180910390fd5b8060158190555050565b60008073ffffffffffffffffffffffffffffffffffffffff168273ffffffffffffffffffffffffffffffffffffffff16036116d2576040517f08c379a00000000000000000000000000000000000000000000000000000000081526004016116c990614d5d565b60405180910390fd5b600360008373ffffffffffffffffffffffffffffffffffffffff1673ffffffffffffffffffffffffffffffffffffffff168152602001908152602001600020549050919050565b61172161291e565b73ffffffffffffffffffffffffffffffffffffffff1661173f61191f565b73ffffffffffffffffffffffffffffffffffffffff1614611795576040517f08c379a000000000000000000000000000000000000000000000000000000000815260040161178c90614827565b60405180910390fd5b61179f60006130b4565b565b6117a961291e565b73ffffffffffffffffffffffffffffffffffffffff166117c761191f565b73ffffffffffffffffffffffffffffffffffffffff161461181d576040517f08c379a000000000000000000000000000000000000000000000000000000000815260040161181490614827565b60405180910390fd5b61182561317a565b565b61182f61291e565b73ffffffffffffffffffffffffffffffffffffffff1661184d61191f565b73ffffffffffffffffffffffffffffffffffffffff16146118a3576040517f08c379a000000000000000000000000000000000000000000000000000000000815260040161189a90614827565b60405180910390fd5b600073ffffffffffffffffffffffffffffffffffffffff168173ffffffffffffffffffffffffffffffffffffffff1603611912576040517f08c379a000000000000000000000000000000000000000000000000000000000815260040161190990614b01565b60405180910390fd5b61191c8133612d23565b50565b6000600d60009054906101000a900473ffffffffffffffffffffffffffffffffffffffff16905090565b611951611454565b15611991576040517f08c379a000000000000000000000000000000000000000000000000000000000815260040161198890614dc9565b60405180910390fd5b638ea466b960e01b83836040516020016119ad93929190614e9e565b604051602081830303815290604052818036038101906119cd9190614fb7565b60003073ffffffffffffffffffffffffffffffffffffffff1663238ac9336040518163ffffffff1660e01b8152600401602060405180830381865afa158015611a1a573d6000803e3d6000fd5b505050506040513d601f19601f82011682018060405250810190611a3e9190614ff9565b9050600073ffffffffffffffffffffffffffffffffffffffff168173ffffffffffffffffffffffffffffffffffffffff1603611aaf576040517f08c379a0000000000000000000000000000000000000000000000000000000008152600401611aa690615072565b60405180910390fd5b600082604051602001611ac29190615105565b604051602081830303815290604052805190602001209050600c600082815260200190815260200160002060009054906101000a900460ff1615611b3b576040517f08c379a0000000000000000000000000000000000000000000000000000000008152600401611b329061516c565b60405180910390fd5b6001600b5484600001513387604051602001611b5a94939291906151e1565b6040516020818303038152906040528051906020012084606001518560200151866040015160405160008152602001604052604051611b9c949392919061523c565b6020604051602081039080840390855afa158015611bbe573d6000803e3d6000fd5b5050506020604051035173ffffffffffffffffffffffffffffffffffffffff168273ffffffffffffffffffffffffffffffffffffffff1614611c35576040517f08c379a0000000000000000000000000000000000000000000000000000000008152600401611c2c906152cd565b60405180910390fd5b6001600c600083815260200190815260200160002060006101000a81548160ff021916908315150217905550856000016020810190611c7491906142e0565b73ffffffffffffffffffffffffffffffffffffffff163373ffffffffffffffffffffffffffffffffffffffff1614611ce1576040517f08c379a0000000000000000000000000000000000000000000000000000000008152600401611cd890615339565b60405180910390fd5b6000871015611d25576040517f08c379a0000000000000000000000000000000000000000000000000000000008152600401611d1c906153a5565b60405180910390fd5b856020013587601b60003373ffffffffffffffffffffffffffffffffffffffff1673ffffffffffffffffffffffffffffffffffffffff16815260200190815260200160002054611d7591906153c5565b1115611db6576040517f08c379a0000000000000000000000000000000000000000000000000000000008152600401611dad90615467565b60405180910390fd5b34878760400135611dc79190615487565b14611e07576040517f08c379a0000000000000000000000000000000000000000000000000000000008152600401611dfe9061552d565b60405180910390fd5b60155487611e13610db6565b611e1d91906153c5565b1115611e5e576040517f08c379a0000000000000000000000000000000000000000000000000000000008152600401611e5590615599565b60405180910390fd5b601854421015611ea3576040517f08c379a0000000000000000000000000000000000000000000000000000000008152600401611e9a9061562b565b60405180910390fd5b86601b60003373ffffffffffffffffffffffffffffffffffffffff1673ffffffffffffffffffffffffffffffffffffffff1681526020019081526020016000206000828254611ef291906153c5565b9250508190555060005b87811015611f2057611f0d33613049565b8080611f1890614b50565b915050611efc565b5050505050505050565b611f3261291e565b73ffffffffffffffffffffffffffffffffffffffff16611f5061191f565b73ffffffffffffffffffffffffffffffffffffffff1614611fa6576040517f08c379a0000000000000000000000000000000000000000000000000000000008152600401611f9d90614827565b60405180910390fd5b8060168190555050565b606060018054611fbf90614718565b80601f0160208091040260200160405190810160405280929190818152602001828054611feb90614718565b80156120385780601f1061200d57610100808354040283529160200191612038565b820191906000526020600020905b81548152906001019060200180831161201b57829003601f168201915b5050505050905090565b61204a61291e565b73ffffffffffffffffffffffffffffffffffffffff1661206861191f565b73ffffffffffffffffffffffffffffffffffffffff16146120be576040517f08c379a00000000000000000000000000000000000000000000000000000000081526004016120b590614827565b60405180910390fd5b81601090805190602001906120d4929190613e72565b5080601190805190602001906120eb929190613e72565b505050565b6000601654905090565b612102611454565b15612142576040517f08c379a000000000000000000000000000000000000000000000000000000000815260040161213990614dc9565b60405180910390fd5b6000811015612186576040517f08c379a000000000000000000000000000000000000000000000000000000000815260040161217d906153a5565b60405180910390fd5b6017548161219333611662565b61219d91906153c5565b11156121de576040517f08c379a00000000000000000000000000000000000000000000000000000000081526004016121d590615467565b60405180910390fd5b34816016546121ed9190615487565b1461222d576040517f08c379a000000000000000000000000000000000000000000000000000000000815260040161222490615697565b60405180910390fd5b60155481612239610db6565b61224391906153c5565b1115612284576040517f08c379a000000000000000000000000000000000000000000000000000000000815260040161227b90615599565b60405180910390fd5b6019544210156122c9576040517f08c379a00000000000000000000000000000000000000000000000000000000081526004016122c090615729565b60405180910390fd5b60005b818110156122f0576122dd33613049565b80806122e890614b50565b9150506122cc565b5050565b6123066122ff61291e565b838361321d565b5050565b6000600b54905090565b61231c61291e565b73ffffffffffffffffffffffffffffffffffffffff1661233a61191f565b73ffffffffffffffffffffffffffffffffffffffff1614612390576040517f08c379a000000000000000000000000000000000000000000000000000000000815260040161238790614827565b60405180910390fd5b8060188190555050565b6123a261291e565b73ffffffffffffffffffffffffffffffffffffffff166123c061191f565b73ffffffffffffffffffffffffffffffffffffffff1614612416576040517f08c379a000000000000000000000000000000000000000000000000000000000815260040161240d90614827565b60405180910390fd5b604051806020016040528060008152506012908051906020019061243b929190613e72565b506040518060200160405280600081525060139080519060200190612461929190613e72565b506000601460006101000a81548160ff021916908315150217905550565b61249061248a61291e565b836129df565b6124cf576040517f08c379a00000000000000000000000000000000000000000000000000000000081526004016124c6906149dd565b60405180910390fd5b6124db84848484613389565b50505050565b60606124ec826128b2565b61252b576040517f08c379a0000000000000000000000000000000000000000000000000000000008152600401612522906157bb565b60405180910390fd5b601460009054906101000a900460ff161561257557601261254b836133e5565b601360405160200161255f939291906158ab565b60405160208183030381529060405290506125a6565b6010612580836133e5565b6011604051602001612594939291906158ab565b60405160208183030381529060405290505b919050565b6000601554905090565b6000600560008473ffffffffffffffffffffffffffffffffffffffff1673ffffffffffffffffffffffffffffffffffffffff16815260200190815260200160002060008373ffffffffffffffffffffffffffffffffffffffff1673ffffffffffffffffffffffffffffffffffffffff16815260200190815260200160002060009054906101000a900460ff16905092915050565b61265161291e565b73ffffffffffffffffffffffffffffffffffffffff1661266f61191f565b73ffffffffffffffffffffffffffffffffffffffff16146126c5576040517f08c379a00000000000000000000000000000000000000000000000000000000081526004016126bc90614827565b60405180910390fd5b600073ffffffffffffffffffffffffffffffffffffffff168173ffffffffffffffffffffffffffffffffffffffff1603612734576040517f08c379a000000000000000000000000000000000000000000000000000000000815260040161272b9061594e565b60405180910390fd5b61273d816130b4565b50565b6001816000016000828254019250508190555050565b60007f80ac58cd000000000000000000000000000000000000000000000000000000007bffffffffffffffffffffffffffffffffffffffffffffffffffffffff1916827bffffffffffffffffffffffffffffffffffffffffffffffffffffffff1916148061282157507f5b5e139f000000000000000000000000000000000000000000000000000000007bffffffffffffffffffffffffffffffffffffffffffffffffffffffff1916827bffffffffffffffffffffffffffffffffffffffffffffffffffffffff1916145b80612831575061283082613545565b5b9050919050565b60007f780e9d63000000000000000000000000000000000000000000000000000000007bffffffffffffffffffffffffffffffffffffffffffffffffffffffff1916827bffffffffffffffffffffffffffffffffffffffffffffffffffffffff191614806128ab57506128aa82612756565b5b9050919050565b60008073ffffffffffffffffffffffffffffffffffffffff166002600084815260200190815260200160002060009054906101000a900473ffffffffffffffffffffffffffffffffffffffff1673ffffffffffffffffffffffffffffffffffffffff1614159050919050565b600033905090565b816004600083815260200190815260200160002060006101000a81548173ffffffffffffffffffffffffffffffffffffffff021916908373ffffffffffffffffffffffffffffffffffffffff160217905550808273ffffffffffffffffffffffffffffffffffffffff166129998361146b565b73ffffffffffffffffffffffffffffffffffffffff167f8c5be1e5ebec7d5bd14f71427d1e84f3dd0314c0f7b2291e5b200ac8c7c3b92560405160405180910390a45050565b60006129ea826128b2565b612a29576040517f08c379a0000000000000000000000000000000000000000000000000000000008152600401612a20906159e0565b60405180910390fd5b6000612a348361146b565b90508073ffffffffffffffffffffffffffffffffffffffff168473ffffffffffffffffffffffffffffffffffffffff161480612aa357508373ffffffffffffffffffffffffffffffffffffffff16612a8b84610b0e565b73ffffffffffffffffffffffffffffffffffffffff16145b80612ab45750612ab381856125b5565b5b91505092915050565b8273ffffffffffffffffffffffffffffffffffffffff16612add8261146b565b73ffffffffffffffffffffffffffffffffffffffff1614612b33576040517f08c379a0000000000000000000000000000000000000000000000000000000008152600401612b2a90615a72565b60405180910390fd5b600073ffffffffffffffffffffffffffffffffffffffff168273ffffffffffffffffffffffffffffffffffffffff1603612ba2576040517f08c379a0000000000000000000000000000000000000000000000000000000008152600401612b9990615b04565b60405180910390fd5b612bad8383836135af565b612bb8600082612926565b6001600360008573ffffffffffffffffffffffffffffffffffffffff1673ffffffffffffffffffffffffffffffffffffffff1681526020019081526020016000206000828254612c089190615b24565b925050819055506001600360008473ffffffffffffffffffffffffffffffffffffffff1673ffffffffffffffffffffffffffffffffffffffff1681526020019081526020016000206000828254612c5f91906153c5565b92505081905550816002600083815260200190815260200160002060006101000a81548173ffffffffffffffffffffffffffffffffffffffff021916908373ffffffffffffffffffffffffffffffffffffffff160217905550808273ffffffffffffffffffffffffffffffffffffffff168473ffffffffffffffffffffffffffffffffffffffff167fddf252ad1be2c89b69c2b068fc378daa952ba7f163c4a11628f55a4df523b3ef60405160405180910390a4612d1e838383613646565b505050565b600073ffffffffffffffffffffffffffffffffffffffff168173ffffffffffffffffffffffffffffffffffffffff1603612d92576040517f08c379a0000000000000000000000000000000000000000000000000000000008152600401612d8990615bca565b60405180910390fd5b600073ffffffffffffffffffffffffffffffffffffffff168273ffffffffffffffffffffffffffffffffffffffff1614612f1257600082905060008173ffffffffffffffffffffffffffffffffffffffff166370a08231306040518263ffffffff1660e01b8152600401612e069190614143565b602060405180830381865afa158015612e23573d6000803e3d6000fd5b505050506040513d601f19601f82011682018060405250810190612e479190615bff565b905060008111612e8c576040517f08c379a0000000000000000000000000000000000000000000000000000000008152600401612e8390615c9e565b60405180910390fd5b8173ffffffffffffffffffffffffffffffffffffffff1663a9059cbb84836040518363ffffffff1660e01b8152600401612ec7929190615cbe565b6020604051808303816000875af1158015612ee6573d6000803e3d6000fd5b505050506040513d601f19601f82011682018060405250810190612f0a9190615cfc565b505050612fa3565b600047905060008111612f5a576040517f08c379a0000000000000000000000000000000000000000000000000000000008152600401612f5190615d9b565b60405180910390fd5b8173ffffffffffffffffffffffffffffffffffffffff166108fc829081150290604051600060405180830381858888f19350505050158015612fa0573d6000803e3d6000fd5b50505b5050565b612faf611454565b612fee576040517f08c379a0000000000000000000000000000000000000000000000000000000008152600401612fe590615e07565b60405180910390fd5b6000600a60006101000a81548160ff0219169083151502179055507f5db9ee0a495bf2e6ff9c91a7834c1ba4fdd244a5e8aa4e537bd38aeae4b073aa61303261291e565b60405161303f9190614143565b60405180910390a1565b6000613055600f61364b565b905060155481111561309c576040517f08c379a000000000000000000000000000000000000000000000000000000000815260040161309390615599565b60405180910390fd5b6130a6600f612740565b6130b08282613659565b5050565b6000600d60009054906101000a900473ffffffffffffffffffffffffffffffffffffffff16905081600d60006101000a81548173ffffffffffffffffffffffffffffffffffffffff021916908373ffffffffffffffffffffffffffffffffffffffff1602179055508173ffffffffffffffffffffffffffffffffffffffff168173ffffffffffffffffffffffffffffffffffffffff167f8be0079c531659141344cd1fd0a4f28419497f9722a3daafe3b4186f6b6457e060405160405180910390a35050565b613182611454565b156131c2576040517f08c379a00000000000000000000000000000000000000000000000000000000081526004016131b990614dc9565b60405180910390fd5b6001600a60006101000a81548160ff0219169083151502179055507f62e78cea01bee320cd4e420270b5ea74000d11b0c9f74754ebdbfc544b05a25861320661291e565b6040516132139190614143565b60405180910390a1565b8173ffffffffffffffffffffffffffffffffffffffff168373ffffffffffffffffffffffffffffffffffffffff160361328b576040517f08c379a000000000000000000000000000000000000000000000000000000000815260040161328290615e73565b60405180910390fd5b80600560008573ffffffffffffffffffffffffffffffffffffffff1673ffffffffffffffffffffffffffffffffffffffff16815260200190815260200160002060008473ffffffffffffffffffffffffffffffffffffffff1673ffffffffffffffffffffffffffffffffffffffff16815260200190815260200160002060006101000a81548160ff0219169083151502179055508173ffffffffffffffffffffffffffffffffffffffff168373ffffffffffffffffffffffffffffffffffffffff167f17307eab39ab6107e8899845ad3d59bd9653f200f220920489ca2b5937696c318360405161337c9190613fc9565b60405180910390a3505050565b613394848484612abd565b6133a084848484613677565b6133df576040517f08c379a00000000000000000000000000000000000000000000000000000000081526004016133d690615f05565b60405180910390fd5b50505050565b60606000820361342c576040518060400160405280600181526020017f30000000000000000000000000000000000000000000000000000000000000008152509050613540565b600082905060005b6000821461345e57808061344790614b50565b915050600a826134579190615f54565b9150613434565b60008167ffffffffffffffff81111561347a57613479614317565b5b6040519080825280601f01601f1916602001820160405280156134ac5781602001600182028036833780820191505090505b5090505b60008514613539576001826134c59190615b24565b9150600a856134d49190615f85565b60306134e091906153c5565b60f81b8183815181106134f6576134f5614c2a565b5b60200101907effffffffffffffffffffffffffffffffffffffffffffffffffffffffffffff1916908160001a905350600a856135329190615f54565b94506134b0565b8093505050505b919050565b60007f01ffc9a7000000000000000000000000000000000000000000000000000000007bffffffffffffffffffffffffffffffffffffffffffffffffffffffff1916827bffffffffffffffffffffffffffffffffffffffffffffffffffffffff1916149050919050565b601a60009054906101000a900460ff1615806135f75750600073ffffffffffffffffffffffffffffffffffffffff168373ffffffffffffffffffffffffffffffffffffffff16145b613636576040517f08c379a000000000000000000000000000000000000000000000000000000000815260040161362d90616002565b60405180910390fd5b6136418383836137fe565b505050565b505050565b600081600001549050919050565b613673828260405180602001604052806000815250613910565b5050565b60006136988473ffffffffffffffffffffffffffffffffffffffff1661396b565b156137f1578373ffffffffffffffffffffffffffffffffffffffff1663150b7a026136c161291e565b8786866040518563ffffffff1660e01b81526004016136e39493929190616022565b6020604051808303816000875af192505050801561371f57506040513d601f19601f8201168201806040525081019061371c9190616083565b60015b6137a1573d806000811461374f576040519150601f19603f3d011682016040523d82523d6000602084013e613754565b606091505b506000815103613799576040517f08c379a000000000000000000000000000000000000000000000000000000000815260040161379090615f05565b60405180910390fd5b805181602001fd5b63150b7a0260e01b7bffffffffffffffffffffffffffffffffffffffffffffffffffffffff1916817bffffffffffffffffffffffffffffffffffffffffffffffffffffffff1916149150506137f6565b600190505b949350505050565b61380983838361398e565b600073ffffffffffffffffffffffffffffffffffffffff168373ffffffffffffffffffffffffffffffffffffffff160361384b5761384681613993565b61388a565b8173ffffffffffffffffffffffffffffffffffffffff168373ffffffffffffffffffffffffffffffffffffffff16146138895761388883826139dc565b5b5b600073ffffffffffffffffffffffffffffffffffffffff168273ffffffffffffffffffffffffffffffffffffffff16036138cc576138c781613b49565b61390b565b8273ffffffffffffffffffffffffffffffffffffffff168273ffffffffffffffffffffffffffffffffffffffff161461390a576139098282613c1a565b5b5b505050565b61391a8383613c99565b6139276000848484613677565b613966576040517f08c379a000000000000000000000000000000000000000000000000000000000815260040161395d90615f05565b60405180910390fd5b505050565b6000808273ffffffffffffffffffffffffffffffffffffffff163b119050919050565b505050565b6008805490506009600083815260200190815260200160002081905550600881908060018154018082558091505060019003906000526020600020016000909190919091505550565b600060016139e984611662565b6139f39190615b24565b9050600060076000848152602001908152602001600020549050818114613ad8576000600660008673ffffffffffffffffffffffffffffffffffffffff1673ffffffffffffffffffffffffffffffffffffffff168152602001908152602001600020600084815260200190815260200160002054905080600660008773ffffffffffffffffffffffffffffffffffffffff1673ffffffffffffffffffffffffffffffffffffffff168152602001908152602001600020600084815260200190815260200160002081905550816007600083815260200190815260200160002081905550505b6007600084815260200190815260200160002060009055600660008573ffffffffffffffffffffffffffffffffffffffff1673ffffffffffffffffffffffffffffffffffffffff16815260200190815260200160002060008381526020019081526020016000206000905550505050565b60006001600880549050613b5d9190615b24565b9050600060096000848152602001908152602001600020549050600060088381548110613b8d57613b8c614c2a565b5b906000526020600020015490508060088381548110613baf57613bae614c2a565b5b906000526020600020018190555081600960008381526020019081526020016000208190555060096000858152602001908152602001600020600090556008805480613bfe57613bfd6160b0565b5b6001900381819060005260206000200160009055905550505050565b6000613c2583611662565b905081600660008573ffffffffffffffffffffffffffffffffffffffff1673ffffffffffffffffffffffffffffffffffffffff168152602001908152602001600020600083815260200190815260200160002081905550806007600084815260200190815260200160002081905550505050565b600073ffffffffffffffffffffffffffffffffffffffff168273ffffffffffffffffffffffffffffffffffffffff1603613d08576040517f08c379a0000000000000000000000000000000000000000000000000000000008152600401613cff9061612b565b60405180910390fd5b613d11816128b2565b15613d51576040517f08c379a0000000000000000000000000000000000000000000000000000000008152600401613d4890616197565b60405180910390fd5b613d5d600083836135af565b6001600360008473ffffffffffffffffffffffffffffffffffffffff1673ffffffffffffffffffffffffffffffffffffffff1681526020019081526020016000206000828254613dad91906153c5565b92505081905550816002600083815260200190815260200160002060006101000a81548173ffffffffffffffffffffffffffffffffffffffff021916908373ffffffffffffffffffffffffffffffffffffffff160217905550808273ffffffffffffffffffffffffffffffffffffffff16600073ffffffffffffffffffffffffffffffffffffffff167fddf252ad1be2c89b69c2b068fc378daa952ba7f163c4a11628f55a4df523b3ef60405160405180910390a4613e6e60008383613646565b5050565b828054613e7e90614718565b90600052602060002090601f016020900481019282613ea05760008555613ee7565b82601f10613eb957805160ff1916838001178555613ee7565b82800160010185558215613ee7579182015b82811115613ee6578251825591602001919060010190613ecb565b5b509050613ef49190613ef8565b5090565b5b80821115613f11576000816000905550600101613ef9565b5090565b6000604051905090565b600080fd5b600080fd5b60007fffffffff0000000000000000000000000000000000000000000000000000000082169050919050565b613f5e81613f29565b8114613f6957600080fd5b50565b600081359050613f7b81613f55565b92915050565b600060208284031215613f9757613f96613f1f565b5b6000613fa584828501613f6c565b91505092915050565b60008115159050919050565b613fc381613fae565b82525050565b6000602082019050613fde6000830184613fba565b92915050565b600081519050919050565b600082825260208201905092915050565b60005b8381101561401e578082015181840152602081019050614003565b8381111561402d576000848401525b50505050565b6000601f19601f8301169050919050565b600061404f82613fe4565b6140598185613fef565b9350614069818560208601614000565b61407281614033565b840191505092915050565b600060208201905081810360008301526140978184614044565b905092915050565b6000819050919050565b6140b28161409f565b81146140bd57600080fd5b50565b6000813590506140cf816140a9565b92915050565b6000602082840312156140eb576140ea613f1f565b5b60006140f9848285016140c0565b91505092915050565b600073ffffffffffffffffffffffffffffffffffffffff82169050919050565b600061412d82614102565b9050919050565b61413d81614122565b82525050565b60006020820190506141586000830184614134565b92915050565b61416781614122565b811461417257600080fd5b50565b6000813590506141848161415e565b92915050565b600080604083850312156141a1576141a0613f1f565b5b60006141af85828601614175565b92505060206141c0858286016140c0565b9150509250929050565b6141d38161409f565b82525050565b60006020820190506141ee60008301846141ca565b92915050565b60008060006060848603121561420d5761420c613f1f565b5b600061421b86828701614175565b935050602061422c86828701614175565b925050604061423d868287016140c0565b9150509250925092565b6000806040838503121561425e5761425d613f1f565b5b600061426c85828601614175565b925050602061427d85828601614175565b9150509250929050565b61429081613fae565b811461429b57600080fd5b50565b6000813590506142ad81614287565b92915050565b6000602082840312156142c9576142c8613f1f565b5b60006142d78482850161429e565b91505092915050565b6000602082840312156142f6576142f5613f1f565b5b600061430484828501614175565b91505092915050565b600080fd5b600080fd5b7f4e487b7100000000000000000000000000000000000000000000000000000000600052604160045260246000fd5b61434f82614033565b810181811067ffffffffffffffff8211171561436e5761436d614317565b5b80604052505050565b6000614381613f15565b905061438d8282614346565b919050565b600067ffffffffffffffff8211156143ad576143ac614317565b5b6143b682614033565b9050602081019050919050565b82818337600083830152505050565b60006143e56143e084614392565b614377565b90508281526020810184848401111561440157614400614312565b5b61440c8482856143c3565b509392505050565b600082601f8301126144295761442861430d565b5b81356144398482602086016143d2565b91505092915050565b6000806040838503121561445957614458613f1f565b5b600083013567ffffffffffffffff81111561447757614476613f24565b5b61448385828601614414565b925050602083013567ffffffffffffffff8111156144a4576144a3613f24565b5b6144b085828601614414565b9150509250929050565b600080fd5b6000606082840312156144d5576144d46144ba565b5b81905092915050565b6000608082840312156144f4576144f36144ba565b5b81905092915050565b6000806000610100848603121561451757614516613f1f565b5b6000614525868287016140c0565b9350506020614536868287016144bf565b9250506080614547868287016144de565b9150509250925092565b6000806040838503121561456857614567613f1f565b5b600061457685828601614175565b92505060206145878582860161429e565b9150509250929050565b6000819050919050565b6145a481614591565b82525050565b60006020820190506145bf600083018461459b565b92915050565b600067ffffffffffffffff8211156145e0576145df614317565b5b6145e982614033565b9050602081019050919050565b6000614609614604846145c5565b614377565b90508281526020810184848401111561462557614624614312565b5b6146308482856143c3565b509392505050565b600082601f83011261464d5761464c61430d565b5b813561465d8482602086016145f6565b91505092915050565b600080600080608085870312156146805761467f613f1f565b5b600061468e87828801614175565b945050602061469f87828801614175565b93505060406146b0878288016140c0565b925050606085013567ffffffffffffffff8111156146d1576146d0613f24565b5b6146dd87828801614638565b91505092959194509250565b7f4e487b7100000000000000000000000000000000000000000000000000000000600052602260045260246000fd5b6000600282049050600182168061473057607f821691505b602082108103614743576147426146e9565b5b50919050565b7f4552433732313a20617070726f76656420717565727920666f72206e6f6e657860008201527f697374656e7420746f6b656e0000000000000000000000000000000000000000602082015250565b60006147a5602c83613fef565b91506147b082614749565b604082019050919050565b600060208201905081810360008301526147d481614798565b9050919050565b7f4f776e61626c653a2063616c6c6572206973206e6f7420746865206f776e6572600082015250565b6000614811602083613fef565b915061481c826147db565b602082019050919050565b6000602082019050818103600083015261484081614804565b9050919050565b7f4552433732313a20617070726f76616c20746f2063757272656e74206f776e6560008201527f7200000000000000000000000000000000000000000000000000000000000000602082015250565b60006148a3602183613fef565b91506148ae82614847565b604082019050919050565b600060208201905081810360008301526148d281614896565b9050919050565b7f4552433732313a20617070726f76652063616c6c6572206973206e6f74206f7760008201527f6e6572206e6f7220617070726f76656420666f7220616c6c0000000000000000602082015250565b6000614935603883613fef565b9150614940826148d9565b604082019050919050565b6000602082019050818103600083015261496481614928565b9050919050565b7f4552433732313a207472616e736665722063616c6c6572206973206e6f74206f60008201527f776e6572206e6f7220617070726f766564000000000000000000000000000000602082015250565b60006149c7603183613fef565b91506149d28261496b565b604082019050919050565b600060208201905081810360008301526149f6816149ba565b9050919050565b7f455243373231456e756d657261626c653a206f776e657220696e646578206f7560008201527f74206f6620626f756e6473000000000000000000000000000000000000000000602082015250565b6000614a59602b83613fef565b9150614a64826149fd565b604082019050919050565b60006020820190508181036000830152614a8881614a4c565b9050919050565b7f576974686472617761626c653a207a65726f2061646472657373206973206e6f60008201527f7420616e20455243323020746f6b656e00000000000000000000000000000000602082015250565b6000614aeb603083613fef565b9150614af682614a8f565b604082019050919050565b60006020820190508181036000830152614b1a81614ade565b9050919050565b7f4e487b7100000000000000000000000000000000000000000000000000000000600052601160045260246000fd5b6000614b5b8261409f565b91507fffffffffffffffffffffffffffffffffffffffffffffffffffffffffffffffff8203614b8d57614b8c614b21565b5b600182019050919050565b7f455243373231456e756d657261626c653a20676c6f62616c20696e646578206f60008201527f7574206f6620626f756e64730000000000000000000000000000000000000000602082015250565b6000614bf4602c83613fef565b9150614bff82614b98565b604082019050919050565b60006020820190508181036000830152614c2381614be7565b9050919050565b7f4e487b7100000000000000000000000000000000000000000000000000000000600052603260045260246000fd5b7f4552433732313a206f776e657220717565727920666f72206e6f6e657869737460008201527f656e7420746f6b656e0000000000000000000000000000000000000000000000602082015250565b6000614cb5602983613fef565b9150614cc082614c59565b604082019050919050565b60006020820190508181036000830152614ce481614ca8565b9050919050565b7f4552433732313a2062616c616e636520717565727920666f7220746865207a6560008201527f726f206164647265737300000000000000000000000000000000000000000000602082015250565b6000614d47602a83613fef565b9150614d5282614ceb565b604082019050919050565b60006020820190508181036000830152614d7681614d3a565b9050919050565b7f5061757361626c653a2070617573656400000000000000000000000000000000600082015250565b6000614db3601083613fef565b9150614dbe82614d7d565b602082019050919050565b60006020820190508181036000830152614de281614da6565b9050919050565b614df281613f29565b82525050565b6000614e076020840184614175565b905092915050565b614e1881614122565b82525050565b6000614e2d60208401846140c0565b905092915050565b614e3e8161409f565b82525050565b60608201614e556000830183614df8565b614e626000850182614e0f565b50614e706020830183614e1e565b614e7d6020850182614e35565b50614e8b6040830183614e1e565b614e986040850182614e35565b50505050565b600060a082019050614eb36000830186614de9565b614ec060208301856141ca565b614ecd6040830184614e44565b949350505050565b600080fd5b614ee381614591565b8114614eee57600080fd5b50565b600081359050614f0081614eda565b92915050565b600060ff82169050919050565b614f1c81614f06565b8114614f2757600080fd5b50565b600081359050614f3981614f13565b92915050565b600060808284031215614f5557614f54614ed5565b5b614f5f6080614377565b90506000614f6f84828501614ef1565b6000830152506020614f8384828501614ef1565b6020830152506040614f9784828501614ef1565b6040830152506060614fab84828501614f2a565b60608301525092915050565b600060808284031215614fcd57614fcc613f1f565b5b6000614fdb84828501614f3f565b91505092915050565b600081519050614ff38161415e565b92915050565b60006020828403121561500f5761500e613f1f565b5b600061501d84828501614fe4565b91505092915050565b7f5369676e61626c653a207369676e6572206e6f7420696e697469616c69736564600082015250565b600061505c602083613fef565b915061506782615026565b602082019050919050565b6000602082019050818103600083015261508b8161504f565b9050919050565b61509b81614591565b82525050565b6150aa81614f06565b82525050565b6080820160008201516150c66000850182615092565b5060208201516150d96020850182615092565b5060408201516150ec6040850182615092565b5060608201516150ff60608501826150a1565b50505050565b600060808201905061511a60008301846150b0565b92915050565b7f5369676e61626c653a207369676e617475726520616c72656164792075736564600082015250565b6000615156602083613fef565b915061516182615120565b602082019050919050565b6000602082019050818103600083015261518581615149565b9050919050565b600081519050919050565b600082825260208201905092915050565b60006151b38261518c565b6151bd8185615197565b93506151cd818560208601614000565b6151d681614033565b840191505092915050565b60006080820190506151f6600083018761459b565b615203602083018661459b565b6152106040830185614134565b818103606083015261522281846151a8565b905095945050505050565b61523681614f06565b82525050565b6000608082019050615251600083018761459b565b61525e602083018661522d565b61526b604083018561459b565b615278606083018461459b565b95945050505050565b7f5369676e61626c653a20696e76616c6964207369676e61747572650000000000600082015250565b60006152b7601b83613fef565b91506152c282615281565b602082019050919050565b600060208201905081810360008301526152e6816152aa565b9050919050565b7f47656e4e46543a2073656e646572206e6f742077686974656c69737465640000600082015250565b6000615323601e83613fef565b915061532e826152ed565b602082019050919050565b6000602082019050818103600083015261535281615316565b9050919050565b7f47656e4e46543a20746f6b656e20616d6f756e74206973207a65726f00000000600082015250565b600061538f601c83613fef565b915061539a82615359565b602082019050919050565b600060208201905081810360008301526153be81615382565b9050919050565b60006153d08261409f565b91506153db8361409f565b9250827fffffffffffffffffffffffffffffffffffffffffffffffffffffffffffffffff038211156154105761540f614b21565b5b828201905092915050565b7f47656e4e46543a2065786365656473206d6178206d696e74206c696d69740000600082015250565b6000615451601e83613fef565b915061545c8261541b565b602082019050919050565b6000602082019050818103600083015261548081615444565b9050919050565b60006154928261409f565b915061549d8361409f565b9250817fffffffffffffffffffffffffffffffffffffffffffffffffffffffffffffffff04831182151516156154d6576154d5614b21565b5b828202905092915050565b7f47656e4e46543a20696e76616c69642065746820616d6f756e74000000000000600082015250565b6000615517601a83613fef565b9150615522826154e1565b602082019050919050565b600060208201905081810360008301526155468161550a565b9050919050565b7f47656e4e46543a2065786365656473206d617820737570706c79000000000000600082015250565b6000615583601a83613fef565b915061558e8261554d565b602082019050919050565b600060208201905081810360008301526155b281615576565b9050919050565b7f47656e4e46543a2077686974656c6973742073616c65206861736e277420737460008201527f6172746564000000000000000000000000000000000000000000000000000000602082015250565b6000615615602583613fef565b9150615620826155b9565b604082019050919050565b6000602082019050818103600083015261564481615608565b9050919050565b7f47656e4e46543a20496e76616c69642065746820616d6f756e74000000000000600082015250565b6000615681601a83613fef565b915061568c8261564b565b602082019050919050565b600060208201905081810360008301526156b081615674565b9050919050565b7f47656e4e46543a207075626c69632073616c65206861736e277420737461727460008201527f6564000000000000000000000000000000000000000000000000000000000000602082015250565b6000615713602283613fef565b915061571e826156b7565b604082019050919050565b6000602082019050818103600083015261574281615706565b9050919050565b7f4552433732314d657461646174613a2055524920717565727920666f72206e6f60008201527f6e6578697374656e7420746f6b656e0000000000000000000000000000000000602082015250565b60006157a5602f83613fef565b91506157b082615749565b604082019050919050565b600060208201905081810360008301526157d481615798565b9050919050565b600081905092915050565b60008190508160005260206000209050919050565b6000815461580881614718565b61581281866157db565b9450600182166000811461582d576001811461583e57615871565b60ff19831686528186019350615871565b615847856157e6565b60005b838110156158695781548189015260018201915060208101905061584a565b838801955050505b50505092915050565b600061588582613fe4565b61588f81856157db565b935061589f818560208601614000565b80840191505092915050565b60006158b782866157fb565b91506158c3828561587a565b91506158cf82846157fb565b9150819050949350505050565b7f4f776e61626c653a206e6577206f776e657220697320746865207a65726f206160008201527f6464726573730000000000000000000000000000000000000000000000000000602082015250565b6000615938602683613fef565b9150615943826158dc565b604082019050919050565b600060208201905081810360008301526159678161592b565b9050919050565b7f4552433732313a206f70657261746f7220717565727920666f72206e6f6e657860008201527f697374656e7420746f6b656e0000000000000000000000000000000000000000602082015250565b60006159ca602c83613fef565b91506159d58261596e565b604082019050919050565b600060208201905081810360008301526159f9816159bd565b9050919050565b7f4552433732313a207472616e736665722066726f6d20696e636f72726563742060008201527f6f776e6572000000000000000000000000000000000000000000000000000000602082015250565b6000615a5c602583613fef565b9150615a6782615a00565b604082019050919050565b60006020820190508181036000830152615a8b81615a4f565b9050919050565b7f4552433732313a207472616e7366657220746f20746865207a65726f2061646460008201527f7265737300000000000000000000000000000000000000000000000000000000602082015250565b6000615aee602483613fef565b9150615af982615a92565b604082019050919050565b60006020820190508181036000830152615b1d81615ae1565b9050919050565b6000615b2f8261409f565b9150615b3a8361409f565b925082821015615b4d57615b4c614b21565b5b828203905092915050565b7f576974686472617761626c653a2063616e6e6f7420776974686472617720746f60008201527f207a65726f206164647265737300000000000000000000000000000000000000602082015250565b6000615bb4602d83613fef565b9150615bbf82615b58565b604082019050919050565b60006020820190508181036000830152615be381615ba7565b9050919050565b600081519050615bf9816140a9565b92915050565b600060208284031215615c1557615c14613f1f565b5b6000615c2384828501615bea565b91505092915050565b7f576974686472617761626c653a2063616e6e6f7420776974686472617720302060008201527f4552433230000000000000000000000000000000000000000000000000000000602082015250565b6000615c88602583613fef565b9150615c9382615c2c565b604082019050919050565b60006020820190508181036000830152615cb781615c7b565b9050919050565b6000604082019050615cd36000830185614134565b615ce060208301846141ca565b9392505050565b600081519050615cf681614287565b92915050565b600060208284031215615d1257615d11613f1f565b5b6000615d2084828501615ce7565b91505092915050565b7f576974686472617761626c653a2063616e6e6f7420776974686472617720302060008201527f4554480000000000000000000000000000000000000000000000000000000000602082015250565b6000615d85602383613fef565b9150615d9082615d29565b604082019050919050565b60006020820190508181036000830152615db481615d78565b9050919050565b7f5061757361626c653a206e6f7420706175736564000000000000000000000000600082015250565b6000615df1601483613fef565b9150615dfc82615dbb565b602082019050919050565b60006020820190508181036000830152615e2081615de4565b9050919050565b7f4552433732313a20617070726f766520746f2063616c6c657200000000000000600082015250565b6000615e5d601983613fef565b9150615e6882615e27565b602082019050919050565b60006020820190508181036000830152615e8c81615e50565b9050919050565b7f4552433732313a207472616e7366657220746f206e6f6e20455243373231526560008201527f63656976657220696d706c656d656e7465720000000000000000000000000000602082015250565b6000615eef603283613fef565b9150615efa82615e93565b604082019050919050565b60006020820190508181036000830152615f1e81615ee2565b9050919050565b7f4e487b7100000000000000000000000000000000000000000000000000000000600052601260045260246000fd5b6000615f5f8261409f565b9150615f6a8361409f565b925082615f7a57615f79615f25565b5b828204905092915050565b6000615f908261409f565b9150615f9b8361409f565b925082615fab57615faa615f25565b5b828206905092915050565b7f47656e4e46543a207472616e7366657273206172652070617573656400000000600082015250565b6000615fec601c83613fef565b9150615ff782615fb6565b602082019050919050565b6000602082019050818103600083015261601b81615fdf565b9050919050565b60006080820190506160376000830187614134565b6160446020830186614134565b61605160408301856141ca565b818103606083015261606381846151a8565b905095945050505050565b60008151905061607d81613f55565b92915050565b60006020828403121561609957616098613f1f565b5b60006160a78482850161606e565b91505092915050565b7f4e487b7100000000000000000000000000000000000000000000000000000000600052603160045260246000fd5b7f4552433732313a206d696e7420746f20746865207a65726f2061646472657373600082015250565b6000616115602083613fef565b9150616120826160df565b602082019050919050565b6000602082019050818103600083015261614481616108565b9050919050565b7f4552433732313a20746f6b656e20616c7265616479206d696e74656400000000600082015250565b6000616181601c83613fef565b915061618c8261614b565b602082019050919050565b600060208201905081810360008301526161b081616174565b905091905056fea2646970667358221220540cbbd66fb3b057f3dbed562825ef88fab87abe21f00d0d76d85168fd995fcc64736f6c634300080d0033",
  "immutableReferences": {},
  "source": "// SPDX-License-Identifier: MIT\r\n\r\npragma solidity ^0.8.0;\r\n\r\nimport \"@openzeppelin/contracts/token/ERC721/ERC721.sol\";\r\nimport \"@openzeppelin/contracts/token/ERC721/extensions/ERC721Enumerable.sol\";\r\nimport \"@openzeppelin/contracts/security/Pausable.sol\";\r\nimport \"@openzeppelin/contracts/utils/Counters.sol\";\r\nimport \"@openzeppelin/contracts/utils/Strings.sol\";\r\nimport \"@grexie/signable/contracts/Signable.sol\";\r\nimport \"./Withdrawable.sol\";\r\n\r\ncontract GenNFT is\r\n  ERC721,\r\n  ERC721Enumerable,\r\n  Pausable,\r\n  Signable,\r\n  Withdrawable\r\n{\r\n  using Counters for Counters.Counter;\r\n  using Strings for uint256;\r\n\r\n  address private _signer;\r\n\r\n  Counters.Counter private _tokenIdCounter;\r\n\r\n  struct ConstructorParams {\r\n    address signer;\r\n    string name;\r\n    string symbol;\r\n    uint256 maxSupply;\r\n    uint256 price;\r\n    uint256 maxMintAmount;\r\n    uint256 whitelistSaleTime;\r\n    uint256 publicSaleTime;\r\n    string hiddenBaseURI;\r\n    string hiddenExtension;\r\n    string revealBaseURI;\r\n    string revealExtension;\r\n    bool revealed;\r\n    bool transfersPaused;\r\n  }\r\n\r\n  struct Whitelist {\r\n    address account;\r\n    uint256 allocation;\r\n    uint256 price;\r\n  }\r\n\r\n  string private _hiddenBaseURI;\r\n  string private _hiddenExtension;\r\n  string private _revealBaseURI;\r\n  string private _revealExtension;\r\n  bool private _revealed;\r\n\r\n  uint256 private _maxSupply;\r\n  uint256 private _price;\r\n  uint256 private _maxMintAmount;\r\n\r\n  uint256 private _whitelistSaleTime;\r\n  uint256 private _publicSaleTime;\r\n\r\n  bool private _transfersPaused;\r\n\r\n  mapping(address => uint256) private _whitelist;\r\n\r\n  constructor(ConstructorParams memory params)\r\n    ERC721(params.name, params.symbol)\r\n  {\r\n    _signer = params.signer;\r\n    _maxSupply = params.maxSupply;\r\n    _price = params.price;\r\n    _maxMintAmount = params.maxMintAmount;\r\n    _whitelistSaleTime = params.whitelistSaleTime;\r\n    _publicSaleTime = params.publicSaleTime;\r\n    _hiddenBaseURI = params.hiddenBaseURI;\r\n    _hiddenExtension = params.hiddenExtension;\r\n    _revealBaseURI = params.revealBaseURI;\r\n    _revealExtension = params.revealExtension;\r\n    _revealed = params.revealed;\r\n    _transfersPaused = params.transfersPaused;\r\n\r\n    _tokenIdCounter.increment();\r\n  }\r\n\r\n  function signer() public view virtual override(ISignable) returns (address) {\r\n    return _signer;\r\n  }\r\n\r\n  function setSigner(address signer_) external onlyOwner {\r\n    _signer = signer_;\r\n  }\r\n\r\n  function maxSupply() public view returns (uint256) {\r\n    return _maxSupply;\r\n  }\r\n\r\n  function price() public view returns (uint256) {\r\n    return _price;\r\n  }\r\n\r\n  function maxMintAmount() public view returns (uint256) {\r\n    return _maxMintAmount;\r\n  }\r\n\r\n  function pause() public onlyOwner {\r\n    _pause();\r\n  }\r\n\r\n  function unpause() public onlyOwner {\r\n    _unpause();\r\n  }\r\n\r\n  function mint(uint256 amount) external payable whenNotPaused {\r\n    require(amount >= 0, 'GenNFT: token amount is zero');\r\n    require(\r\n      balanceOf(msg.sender) + amount <= _maxMintAmount,\r\n      'GenNFT: exceeds max mint limit'\r\n    );\r\n    require(_price * amount == msg.value, 'GenNFT: Invalid eth amount');\r\n    require(\r\n      totalSupply() + amount <= _maxSupply,\r\n      'GenNFT: exceeds max supply'\r\n    );\r\n    if (block.timestamp < _publicSaleTime) {\r\n      revert(\"GenNFT: public sale hasn't started\");\r\n    }\r\n\r\n    for (uint256 i = 0; i < amount; i++) {\r\n      _safeMint(msg.sender);\r\n    }\r\n  }\r\n\r\n  function mintWhitelist(\r\n    uint256 amount,\r\n    Whitelist calldata whitelist,\r\n    Signature calldata signature\r\n  )\r\n    external\r\n    payable\r\n    whenNotPaused\r\n    verifySignature(\r\n      abi.encode(this.mintWhitelist.selector, amount, whitelist),\r\n      signature\r\n    )\r\n  {\r\n    require(\r\n      msg.sender == whitelist.account,\r\n      'GenNFT: sender not whitelisted'\r\n    );\r\n    require(amount >= 0, 'GenNFT: token amount is zero');\r\n    require(\r\n      _whitelist[msg.sender] + amount <= whitelist.allocation,\r\n      'GenNFT: exceeds max mint limit'\r\n    );\r\n    require(\r\n      whitelist.price * amount == msg.value,\r\n      'GenNFT: invalid eth amount'\r\n    );\r\n    require(\r\n      totalSupply() + amount <= _maxSupply,\r\n      'GenNFT: exceeds max supply'\r\n    );\r\n    if (block.timestamp < _whitelistSaleTime) {\r\n      revert(\"GenNFT: whitelist sale hasn't started\");\r\n    }\r\n\r\n    _whitelist[msg.sender] += amount;\r\n    for (uint256 i = 0; i < amount; i++) {\r\n      _safeMint(msg.sender);\r\n    }\r\n  }\r\n\r\n  function mintOwner(address to, uint256 amount) external onlyOwner {\r\n    for (uint256 i = 0; i < amount; i++) {\r\n      _safeMint(to);\r\n    }\r\n  }\r\n\r\n  function _safeMint(address to) internal {\r\n    uint256 tokenId = _tokenIdCounter.current();\r\n    require(tokenId <= _maxSupply, 'GenNFT: exceeds max supply');\r\n\r\n    _tokenIdCounter.increment();\r\n    _safeMint(to, tokenId);\r\n  }\r\n\r\n  function tokenURI(uint256 tokenId)\r\n    public\r\n    view\r\n    override\r\n    returns (string memory)\r\n  {\r\n    require(\r\n      _exists(tokenId),\r\n      'ERC721Metadata: URI query for nonexistent token'\r\n    );\r\n\r\n    if (_revealed) {\r\n      return\r\n        string(\r\n          abi.encodePacked(_revealBaseURI, tokenId.toString(), _revealExtension)\r\n        );\r\n    } else {\r\n      return\r\n        string(\r\n          abi.encodePacked(_hiddenBaseURI, tokenId.toString(), _hiddenExtension)\r\n        );\r\n    }\r\n  }\r\n\r\n  function transfersPaused() public view returns (bool) {\r\n    return _transfersPaused;\r\n  }\r\n\r\n  function setTransfersPaused(bool transfersPaused_) external onlyOwner {\r\n    _transfersPaused = transfersPaused_;\r\n  }\r\n\r\n  function _beforeTokenTransfer(\r\n    address from,\r\n    address to,\r\n    uint256 tokenId\r\n  ) internal override(ERC721, ERC721Enumerable) {\r\n    require(\r\n      !_transfersPaused || from == address(0),\r\n      'GenNFT: transfers are paused'\r\n    );\r\n\r\n    super._beforeTokenTransfer(from, to, tokenId);\r\n  }\r\n\r\n  function supportsInterface(bytes4 interfaceId)\r\n    public\r\n    view\r\n    override(ERC721, ERC721Enumerable)\r\n    returns (bool)\r\n  {\r\n    return\r\n      ERC721.supportsInterface(interfaceId) ||\r\n      ERC721Enumerable.supportsInterface(interfaceId);\r\n  }\r\n\r\n  function setMaxSupply(uint256 maxSupply_) external onlyOwner {\r\n    _maxSupply = maxSupply_;\r\n  }\r\n\r\n  function setPrice(uint256 price_) external onlyOwner {\r\n    _price = price_;\r\n  }\r\n\r\n  function setMaxMintAmount(uint256 maxMintAmount_) external onlyOwner {\r\n    _maxMintAmount = maxMintAmount_;\r\n  }\r\n\r\n  function setHiddenURI(string memory baseURI, string memory extension)\r\n    external\r\n    onlyOwner\r\n  {\r\n    _hiddenBaseURI = baseURI;\r\n    _hiddenExtension = extension;\r\n  }\r\n\r\n  function reveal(string memory baseURI, string memory extension)\r\n    external\r\n    onlyOwner\r\n  {\r\n    _revealBaseURI = baseURI;\r\n    _revealExtension = extension;\r\n    _revealed = true;\r\n  }\r\n\r\n  function hide() external onlyOwner {\r\n    _revealBaseURI = '';\r\n    _revealExtension = '';\r\n    _revealed = false;\r\n  }\r\n\r\n  function whitelistSaleTime() public view returns (uint256) {\r\n    return _whitelistSaleTime;\r\n  }\r\n\r\n  function setWhitelistSaleTime(uint256 whitelistSaleTime_) external onlyOwner {\r\n    _whitelistSaleTime = whitelistSaleTime_;\r\n  }\r\n\r\n  function publicSaleTime() public view returns (uint256) {\r\n    return _publicSaleTime;\r\n  }\r\n\r\n  function setPublicSaleTime(uint256 publicSaleTime_) external onlyOwner {\r\n    _publicSaleTime = publicSaleTime_;\r\n  }\r\n}",
  "sourcePath": "/home/taurinos/workspace/nft-sale/contracts/NFTCreator.sol",
  "compiler": {
    "name": "solc",
    "version": "0.8.13+commit.abaa5c0e.Emscripten.clang"
  },
  "schemaVersion": "3.4.6",
  "updatedAt": "2022-03-29T04:05:11.891Z",
  "devdoc": {
    "kind": "dev",
    "methods": {
      "approve(address,uint256)": {
        "details": "See {IERC721-approve}."
      },
      "balanceOf(address)": {
        "details": "See {IERC721-balanceOf}."
      },
      "getApproved(uint256)": {
        "details": "See {IERC721-getApproved}."
      },
      "isApprovedForAll(address,address)": {
        "details": "See {IERC721-isApprovedForAll}."
      },
      "name()": {
        "details": "See {IERC721Metadata-name}."
      },
      "owner()": {
        "details": "Returns the address of the current owner."
      },
      "ownerOf(uint256)": {
        "details": "See {IERC721-ownerOf}."
      },
      "paused()": {
        "details": "Returns true if the contract is paused, and false otherwise."
      },
      "renounceOwnership()": {
        "details": "Leaves the contract without owner. It will not be possible to call `onlyOwner` functions anymore. Can only be called by the current owner. NOTE: Renouncing ownership will leave the contract without an owner, thereby removing any functionality that is only available to the owner."
      },
      "safeTransferFrom(address,address,uint256)": {
        "details": "See {IERC721-safeTransferFrom}."
      },
      "safeTransferFrom(address,address,uint256,bytes)": {
        "details": "See {IERC721-safeTransferFrom}."
      },
      "setApprovalForAll(address,bool)": {
        "details": "See {IERC721-setApprovalForAll}."
      },
      "symbol()": {
        "details": "See {IERC721Metadata-symbol}."
      },
      "tokenByIndex(uint256)": {
        "details": "See {IERC721Enumerable-tokenByIndex}."
      },
      "tokenOfOwnerByIndex(address,uint256)": {
        "details": "See {IERC721Enumerable-tokenOfOwnerByIndex}."
      },
      "tokenURI(uint256)": {
        "details": "See {IERC721Metadata-tokenURI}."
      },
      "totalSupply()": {
        "details": "See {IERC721Enumerable-totalSupply}."
      },
      "transferFrom(address,address,uint256)": {
        "details": "See {IERC721-transferFrom}."
      },
      "transferOwnership(address)": {
        "details": "Transfers ownership of the contract to a new account (`newOwner`). Can only be called by the current owner."
      }
    },
    "version": 1
  },
  "userdoc": {
    "kind": "user",
    "methods": {},
    "version": 1
  }
}